:100000000C9458000C9480000C9480000C94800098
:100010000C9480000C9480000C9480000C94800060
:100020000C9480000C9480000C9480000C94800050
:100030000C9480000C9480000C9480000C94800040
:100040000C9445010C9480000C9480000C9480006A
:100050000C9480000C9480000C9480000C94800020
:100060000C948F010C9480000000000025002800F3
:100070002B00040404040404040402020202020229
:10008000030303030303010204081020408001025C
:1000900004081020010204081020000000080002DB
:1000A0000100000304070000000000000000290315
:1000B00011241FBECFEFD8E0DEBFCDBF11E0A0E01E
:1000C000B1E0E4E8F6E002C005900D92A231B1077C
:1000D000D9F721E0A2E1B1E001C01D92A93BB2072E
:1000E000E1F710E0C8E5D0E004C02197FE010E94CE
:1000F0003A03C735D107C9F70E94AE020C944003FA
:100100000C94000090E0FC01E656FF4F2491FC01A6
:10011000EA57FF4F3491FC01EE58FF4FE491EE2374
:10012000B1F0222339F02330E9F090F4213001F1CD
:10013000223011F1F0E0EE0FFF1FE859FF4FA591BB
:10014000B4918FB7F894EC913E2B3C938FBF0895F8
:100150002730A9F02830C9F0243061F78091800061
:100160008F7D03C0809180008F7780938000E2CFE5
:1001700084B58F7784BDDECF84B58F7DFBCF809132
:10018000B0008F778093B000D5CF8091B0008F7D85
:10019000F9CF0895089585ED8093BC008091BC004F
:1001A00084FDFCCF10929F01089520915201260FEB
:1001B0003327331F21323105ECF420919F01FC01DC
:1001C00090E080E0243069F082E00895A09152012F
:1001D0002191AC014E5C5E4FA40FB52FB11D2C9345
:1001E0000196861798F380915201680F609352012F
:1001F00080E0089581E008950895E091A301809141
:10020000A201E81730F4F0E0EE5EFE4F808190E04E
:1002100008958FEF9FEF08959091A3018091A2011F
:100220002FEF3FEF981748F4E92FF0E0EE5EFE4F16
:10023000208130E09F5F9093A301C90108958091D0
:10024000A2019091A301891B990B0895CF93DF938D
:10025000CB01EA01642F0E94D500CE01DF91CF913E
:100260000895CF93DF931F92CDB7DEB7698361E026
:10027000CE0101960E94D50081E090E00F90DF91C1
:10028000CF91089590E080E008951F920F920FB6ED
:100290000F9211242F933F938F939F93AF93BF930C
:1002A0008091B5019091B601A091B701B091B801CC
:1002B0003091B40123E0230F2D3758F50196A11D8D
:1002C000B11D2093B4018093B5019093B601A09322
:1002D000B701B093B8018091B0019091B101A091A4
:1002E000B201B091B3010196A11DB11D8093B0017F
:1002F0009093B101A093B201B093B301BF91AF91BC
:100300009F918F913F912F910F900FBE0F901F9053
:10031000189526E8230F0296A11DB11DD2CF1F927A
:100320000F920FB60F9211242F933F934F935F9329
:100330006F937F938F939F93AF93BF93EF93FF93AD
:100340008091B900887F803609F44AC0F0F5883280
:1003500009F4A7C018F5803109F49BC0B8F48823CC
:1003600009F4F9C0883009F494C0FF91EF91BF916E
:10037000AF919F918F917F916F915F914F913F913D
:100380002F910F900FBE0F901F901895883109F490
:1003900088C0803251F78093750114C0803409F40D
:1003A0009DC040F48033B9F38833F9F6809375012A
:1003B00085ECB0C0803509F485C0883509F496C055
:1003C000883499F60E94CB00D0CF883909F48CC0CC
:1003D00038F5883729F050F4883611F0803729F63F
:1003E00083E080939F011092740157C0883809F40C
:1003F0007BC0803919F0803809F0B7CF8091740143
:10040000803208F071C0E091740181E08E0F80931A
:1004100074018091BB00F0E0EC5AFE4F80833DC038
:10042000803B39F0E0F4803A09F479C0883A09F069
:100430009CCF84E080939F0110925301109252014F
:10044000E0919B01F0919C010995809152018111ED
:100450000FC081E0809352011092320109C0803CAC
:1004600009F4A6CF883C09F4A3CF883B09F07DCFDF
:10047000E091530181E08E0F80935301F0E0EE5C38
:10048000FE4F80818093BB00909153018091520177
:1004900029C0809198018093BB0085EC8093BC00BB
:1004A00064CF9091970180919601981758F5E0914B
:1004B000970181E08E0F80939701F0E0EA58FE4F9C
:1004C0008081E9CFE091970181E08E0F80939701C1
:1004D0008091BB00F0E0EA58FE4F80839091970135
:1004E000809196019817C8F285E8D8CFE0919701DE
:1004F00081E08E0F809397018091BB00F0E0EA5875
:10050000FE4F808380919E0181115CCF81E08093BA
:100510009D0184EA8093BC0010929F0126CF85EC58
:100520008093BC0010929F0180917401803230F45E
:10053000E0917401F0E0EC5AFE4F1082609174017A
:1005400070E0E0919901F0919A0184E591E00995BC
:10055000109274010ACF1092750134CF789484B54B
:10056000826084BD84B5816084BD85B5826085BDAF
:1005700085B5816085BD80916E00816080936E003D
:10058000109281008091810082608093810080912F
:1005900081008160809381008091800081608093E0
:1005A00080008091B10084608093B1008091B000A0
:1005B00081608093B00080917A00846080937A009B
:1005C00080917A00826080937A0080917A008160C5
:1005D00080937A0080917A00806880937A001092EC
:1005E000C1001092A3011092A2011092A1011092D9
:1005F000A00110929F0181E080939E0110929D01C5
:1006000082E10E94820083E10E9482008091B90011
:100610008E7F8093B9008091B9008D7F8093B9005F
:1006200088E48093B80085E48093BC0089EC90E076
:1006300090939C0180939B018AEC90E090939A01A7
:1006400080939901C0E0D0E02097F1F30E94000070
:10065000FBCFE4EAF1E01382128288EE93E0A0E09F
:10066000B0E084839583A683B78384E091E091838F
:1006700080830895EE0FFF1F0590F491E02D0994FB
:04068000F894FFCF1C
:1006840000000000310126014201FC001F010C01A1
:02069400FD0067
:107E0000112484B714BE81FFF0D085E080938100F7
:107E100082E08093C00088E18093C10086E0809377
:107E2000C20080E18093C4008EE0C9D0259A86E02C
:107E300020E33CEF91E0309385002093840096BBD3
:107E4000B09BFECF1D9AA8958150A9F7CC24DD24C4
:107E500088248394B5E0AB2EA1E19A2EF3E0BF2EE7
:107E6000A2D0813461F49FD0082FAFD0023811F036
:107E7000013811F484E001C083E08DD089C08234E0
:107E800011F484E103C0853419F485E0A6D080C0E4
:107E9000853579F488D0E82EFF2485D0082F10E0AE
:107EA000102F00270E291F29000F111F8ED06801E7
:107EB0006FC0863521F484E090D080E0DECF843638
:107EC00009F040C070D06FD0082F6DD080E0C81688
:107ED00080E7D80618F4F601B7BEE895C0E0D1E017
:107EE00062D089930C17E1F7F0E0CF16F0E7DF06D8
:107EF00018F0F601B7BEE89568D007B600FCFDCFD4
:107F0000A601A0E0B1E02C9130E011968C91119780
:107F100090E0982F8827822B932B1296FA010C0160
:107F200087BEE89511244E5F5F4FF1E0A038BF0790
:107F300051F7F601A7BEE89507B600FCFDCF97BE46
:107F4000E89526C08437B1F42ED02DD0F82E2BD052
:107F50003CD0F601EF2C8F010F5F1F4F84911BD097
:107F6000EA94F801C1F70894C11CD11CFA94CF0C13
:107F7000D11C0EC0853739F428D08EE10CD085E9AC
:107F80000AD08FE07ACF813511F488E018D01DD067
:107F900080E101D065CF982F8091C00085FFFCCF94
:107FA0009093C60008958091C00087FFFCCF809118
:107FB000C00084FD01C0A8958091C6000895E0E648
:107FC000F0E098E1908380830895EDDF803219F02E
:107FD00088E0F5DFFFCF84E1DECF1F93182FE3DFCA
:107FE0001150E9F7F2DF1F91089580E0E8DFEE27F6
:047FF000FF270994CA
:027FFE00040479
:0400000300007E007B
:00000001FF