:100000000C9458000C9480000C9480000C94800098
:100010000C9480000C9480000C9480000C94800060
:100020000C9480000C9480000C9480000C9494013B
:100030000C9480000C9480000C9480000C94800040
:100040000C944A010C9480000C9480000C94800065
:100050000C9480000C9480000C9480000C94800020
:100060000C94F8010C94800000000000250028008A
:100070002B00040404040404040402020202020229
:10008000030303030303010204081020408001025C
:1000900004081020010204081020000000080002DB
:1000A00001000003040700000000000000009403AA
:1000B00011241FBECFEFD8E0DEBFCDBF11E0A0E01E
:1000C000B1E0EAE5F7E002C005900D92A231B10778
:1000D000D9F721E0A2E1B1E001C01D92AE3DB20727
:1000E000E1F710E0C8E5D0E004C02197FE010E94CE
:1000F000A503C735D107C9F70E9417030C94AB03BA
:100100000C9400000895089590E0FC01E656FF4F1E
:100110002491FC01EA57FF4F3491FC01EE58FF4F48
:10012000E491EE23C9F0222339F0233001F1A8F441
:10013000213019F1223029F1F0E0EE0FFF1FE859CC
:10014000FF4FA591B4918FB7F894EC91611126C03F
:1001500030953E233C938FBF08952730A9F0283077
:10016000C9F0243049F7809180008F7D03C08091D1
:1001700080008F7780938000DFCF84B58F7784BD38
:10018000DBCF84B58F7DFBCF8091B0008F778093DC
:10019000B000D2CF8091B0008F7DF9CF3E2BDACF67
:1001A00085ED8093BC008091BC0084FDFCCF109253
:1001B000C401089520915201260F3327331F2132A5
:1001C0003105ECF42091C401FC0190E080E0243082
:1001D00069F082E00895A09152012191AC014E5C3A
:1001E0005E4FA40FB52FB11D2C930196861798F37F
:1001F00080915201680F6093520180E0089581E080
:1002000008950895E091C8018091C701E81730F47E
:10021000F0E0EE5EFE4F808190E008958FEF9FEF5B
:1002200008959091C8018091C7012FEF3FEF981773
:1002300048F4E92FF0E0EE5EFE4F208130E09F5F52
:100240009093C801C90108958091C7019091C80198
:10025000891B990B0895CF93DF93CB01EA01642F9B
:100260000E94DA00CE01DF91CF910895CF93DF9302
:100270001F92CDB7DEB7698361E0CE0101960E947F
:10028000DA0081E090E00F90DF91CF91089590E047
:1002900080E008951F920F920FB60F9211242F93B2
:1002A0003F938F939F93AF93BF938091DA01909187
:1002B000DB01A091DC01B091DD013091D90123E097
:1002C000230F2D3758F50196A11DB11D2093D9019B
:1002D0008093DA019093DB01A093DC01B093DD0100
:1002E0008091D5019091D601A091D701B091D8010C
:1002F0000196A11DB11D8093D5019093D601A093C5
:10030000D701B093D801BF91AF919F918F913F9149
:100310002F910F900FBE0F901F90189526E8230F76
:100320000296A11DB11DD2CF1F920F920FB60F9250
:1003300011242F933F938F939F93EF93FF9380917B
:10034000BD0187FF1FC0109285001092840080912C
:10035000BD018F5F8093BD018091BD0187FF04C007
:100360008091BD018C30ACF080918400909185002B
:10037000049680349C4990F180918400909185008E
:1003800004962EC08091BD0187FFE1CF8091BD0111
:10039000DECF2091840030918500E091BD018E2F49
:1003A000EE0F990BFC01EE0FFF1FE80FF91FE75648
:1003B000FE4F81819281820F931F909389008093D9
:1003C00088008091BD01FF91EF919F918F913F91A6
:1003D0002F910F900FBE0F901F90189580E49CE90D
:1003E00090938900809388008FEF8093BD01EBCFBD
:1003F0001F920F920FB60F9211242F933F934F939A
:100400005F936F937F938F939F93AF93BF93EF937C
:10041000FF938091B900887F803609F44AC0F0F5D7
:10042000883209F4A7C018F5803109F49BC0B8F4EC
:10043000882309F4F9C0883009F494C0FF91EF9142
:10044000BF91AF919F918F917F916F915F914F91EC
:100450003F912F910F900FBE0F901F9018958831EC
:1004600009F488C0803251F78093750114C080343C
:1004700009F49DC040F48033B9F38833F9F68093D2
:10048000750185ECB0C0803509F485C0883509F464
:1004900096C0883499F60E94D000D0CF883909F4EC
:1004A0008CC038F5883729F050F4883611F0803741
:1004B00029F683E08093C4011092740157C08838F4
:1004C00009F47BC0803919F0803809F0B7CF8091EA
:1004D0007401803208F071C0E091740181E08E0FE8
:1004E000809374018091BB00F0E0EC5AFE4F808352
:1004F0003DC0803B39F0E0F4803A09F479C0883A95
:1005000009F09CCF84E08093C401109253011092B3
:100510005201E091C001F091C10109958091520111
:1005200081110FC081E0809352011092320109C005
:10053000803C09F4A6CF883C09F4A3CF883B09F09E
:100540007DCFE091530181E08E0F80935301F0E065
:10055000EE5CFE4F80818093BB00909153018091AF
:10056000520129C0809198018093BB0085EC809353
:10057000BC0064CF9091970180919601981758F52F
:10058000E091970181E08E0F80939701F0E0EA58A7
:10059000FE4F8081E9CFE091970181E08E0F80933B
:1005A00097018091BB00F0E0EA58FE4F8083909164
:1005B0009701809196019817C8F285E8D8CFE0910D
:1005C000970181E08E0F809397018091BB00F0E04E
:1005D000EA58FE4F80838091C30181115CCF81E096
:1005E0008093C20184EA8093BC001092C40126CF9C
:1005F00085EC8093BC001092C4018091740180321C
:1006000030F4E0917401F0E0EC5AFE4F10826091FA
:10061000740170E0E091BE01F091BF0184E591E0CA
:100620000995109274010ACF1092750134CF789415
:1006300084B5826084BD84B5816084BD85B58260E7
:1006400085BD85B5816085BD80916E008160809398
:100650006E00109281008091810082608093810001
:100660008091810081608093810080918000816011
:10067000809380008091B10084608093B10080916C
:10068000B00081608093B00080917A008460809394
:100690007A0080917A00826080937A0080917A005B
:1006A000816080937A0080917A00806880937A00DC
:1006B0001092C1001092C8011092C7011092C60199
:1006C0001092C5011092C40181E08093C301109281
:1006D000C20161E082E10E94840061E083E10E9446
:1006E00084008091B9008E7F8093B9008091B90019
:1006F0008D7F8093B90088E48093B80085E480936F
:10070000BC0082E890E09093C1018093C00183E82F
:1007100090E09093BF018093BE01C0E0D0E02097AD
:10072000F1F30E940000FBCFE9ECF1E013821282AA
:1007300088EE93E0A0E0B0E084839583A683B7833E
:1007400084E091E0918380830895EE0FFF1F059070
:0A075000F491E02D0994F894FFCF16
:10075A000000000036012B014701010124011101AB
:02076A0002018A
:00000001FF
