:100000000C9459000C9481000C9481000C94810094
:100010000C9481000C9481000C9481000C9481005C
:100020000C9481000C9481000C9481000C9481004C
:100030000C9481000C9481000C9481000C9481003C
:100040000C94CD040C9481000C943D050C94170580
:100050000C9481000C9481000C9481000C9481001C
:100060000C946F050C94810000000000250028000E
:100070002B00040404040404040402020202020229
:10008000030303030303010204081020408001025C
:1000900004081020010204081020000000080002DB
:1000A00001000003040700000000000000006907D1
:1000B0004D0811241FBECFEFD8E0DEBFCDBF11E049
:1000C000A0E0B1E0E6EFF3E102C005900D92AA3D99
:1000D000B107D9F723E0AAEDB1E001C01D92A43821
:1000E000B207E1F710E0C8E5D0E004C02197FE01B7
:1000F0000E94E809C735D107C9F70E94CE070C94C2
:10010000EE090C9400001F93CF93DF93182FC0913A
:100110007502D09176028A3041F4E881F98101902C
:10012000F081E02D6DE0CE010995E881F981019023
:10013000F081E02D612FCE01099521E030E001979B
:1001400011F430E020E0C901DF91CF911F910895B3
:10015000CF93DF93C0917502D0917602E881F98147
:100160000084F185E02DCE010995892BB9F3E88152
:10017000F9810284F385E02DCE01DF91CF910994BE
:1001800090E0FC01E656FF4F2491FC01EA57FF4F37
:100190003491FC01EE58FF4FE491EE23B1F022239D
:1001A00039F02330E9F090F4213001F1223011F1DF
:1001B000F0E0EE0FFF1FE859FF4FA591B4918FB704
:1001C000F894EC913E2B3C938FBF08952730A9F013
:1001D0002830C9F0243061F7809180008F7D03C002
:1001E000809180008F7780938000E2CF84B58F77F5
:1001F00084BDDECF84B58F7DFBCF8091B0008F773B
:100200008093B000D5CF8091B0008F7DF9CFFC01F5
:10021000538D448D252F30E0842F90E0821B930B6B
:10022000541710F0CF96089501970895FC01918D11
:10023000828D981761F0A28DAE0FBF2FB11D5D9614
:100240008C91928D9F5F9F73928F90E008958FEFB6
:100250009FEF0895FC01918D828D981731F0828D6A
:10026000E80FF11D858D90E008958FEF9FEF0895C1
:10027000FC01918D228D892F90E0805C9F4F821B25
:1002800091098F7399270895FC01A48DA80FB92FA8
:10029000B11DA35ABF4F2C91848D90E001968F73AE
:1002A0009927848FA689B7892C93A089B1898C91CD
:1002B000837080648C93938D848D981306C002881C
:1002C000F389E02D80818F7D80830895EF92FF92E6
:1002D0000F931F93CF93DF93EC0181E0888F9B8D69
:1002E0008C8D98131AC0E889F989808185FF15C023
:1002F0009FB7F894EE89FF896083E889F989808146
:100300008370806480839FBF81E090E0DF91CF9114
:100310001F910F91FF90EF900895F62E0B8D10E036
:100320000F5F1F4F0F731127E02E8C8D8E110CC0A5
:100330000FB607FCFACFE889F989808185FFF5CFF0
:10034000CE010E944401F1CFEB8DEC0FFD2FF11D8A
:10035000E35AFF4FF0829FB7F8940B8FEA89FB892D
:1003600080818062CFCFCF93DF93EC01888D88238B
:10037000B9F0AA89BB89E889F9898C9185FD03C008
:10038000808186FD0DC00FB607FCF7CF8C9185FFED
:10039000F2CF808185FFEDCFCE010E944401E9CFED
:1003A000DF91CF91089587EA92E00E94380121E021
:1003B000892B09F420E0822F089580E090E0892BBA
:1003C00029F00E94D30181110C9400000895DC01F2
:1003D000ED91FC910190F081E02D0994AF92BF92D4
:1003E000CF92DF92EF92FF920F931F93CF93DF9301
:1003F0006C017B018B01040F151FEB015E01AE1830
:10040000BF08C017D10759F06991D601ED91FC9151
:100410000190F081E02DC6010995892B79F7C5017E
:10042000DF91CF911F910F91FF90EF90DF90CF90D0
:10043000BF90AF90089508950895CB0108954F920D
:100440005F926F927F92BF92CF92DF92EF92FF9274
:100450000F931F93CF93DF93EC0129013A018B0196
:10046000C12CD12C7601C414D504E604F7040CF099
:100470003FC0F801B1908F018F8580FF0BC0E881EC
:10048000F9810084F185E02D20E144E070E060E036
:10049000CE010995EB85FC858D859E85E817F907CA
:1004A00060F4B0828B859C8501969C878B872FEFAB
:1004B000C21AD20AE20AF20AD6CF6B2D70E0E881A6
:1004C000F981028CF38DE02DCE010995019679F723
:1004D000C701B601DF91CF911F910F91FF90EF906F
:1004E000DF90CF90BF907F906F905F904F90089576
:1004F00073016201EDCFCF93DF93EC01E881F981C5
:100500000288F389E02D09958F3F980731F02D81FE
:100510003E812F5F3F4F3E832D83DF91CF91089522
:100520008FEF9FEF089560E070E0CB01089590E0B9
:1005300080E00895FF920F931F93CF93DF938C0178
:10054000EB016F3F7607B9F0F62EEAE06E1306C0B6
:100550006DE0F801808991890E94E7016F2DF80113
:10056000808991890E94E701CE01DF91CF911F918F
:100570000F91FF900895D0E0C0E0F6CF7F928F9268
:100580009F92AF92BF92CF92DF92EF92FF920F9322
:100590001F93CF93DF938C0149015A01EB01C12CCA
:1005A000D12C7601C814D904EA04FB04B4F4799080
:1005B0008AE0781206C06DE0F801808991890E9476
:1005C000E701672DF801808991890E94E701FFEF1B
:1005D000CF1ADF0AEF0AFF0AE5CFC501B401DF91A8
:1005E000CF911F910F91FF90EF90DF90CF90BF9030
:1005F000AF909F908F907F900895CF93DF93EC0101
:1006000088899989DC01ED91FC910084F185E02DC8
:100610000995892BA9F388899989DC01ED91FC91D1
:100620000284F385E02DDF91CF910994CF93DF937E
:10063000EC0188899989DC01ED91FC910084F185B8
:10064000E02D0995892BA9F388899989DC01ED9121
:10065000FC910484F585E02DDF91CF9109948F9270
:100660009F92AF92BF92CF92DF92EF92FF920F9341
:100670001F93CF93DF938C0149015A01EB01C12CE9
:10068000D12C7601D80150968D919C91DC01ED9191
:10069000FC910284F385E02D09958F3F61F0C81429
:1006A000D904EA04FB043CF48993BFEFCB1ADB0ABC
:1006B000EB0AFB0AE7CFC701B601DF91CF911F918B
:1006C0000F91FF90EF90DF90CF90BF90AF909F90F1
:1006D0008F900895DC0150968D919C91DC01ED91F5
:1006E000FC910084F185E02D099490E080E008956C
:1006F00090E080E0089590E080E0089508950895E6
:10070000DC01ED91FC9136970190F081E02DE80F2E
:10071000F91F80E791E0918380838AE791E09783D6
:100720008683089520E731E0FC01318320832AE7A6
:1007300031E0378326830895FB0120813181FC015C
:1007400031832083FB014281538126503109F90115
:1007500020813181820F931FFC01518340830895D2
:100760002CE831E0FC013183208326E931E0318F30
:10077000208F60E871E00C949C03DC01ED91FC910A
:10078000369720813181820F931F0C94B003089516
:10079000DC01ED91FC9136970190F081E02DE80F9E
:1007A000F91F8CE591E09183808386E691E0938345
:1007B000828308952CE531E0FC013183208326E615
:1007C00031E0338322830895FB0120813181FC01D4
:1007D00031832083FB014281538126503109F90185
:1007E00020813181820F931FFC0151834083089542
:1007F00028EA31E0FC013183208322EB31E0358BA4
:10080000248B6CE971E00C94E403DC01ED91FC9124
:10081000369720813181820F931F0C94F80308953D
:1008200085ED8093BC008091BC0084FDFCCF1092CC
:100830006702089520911A02260F3327331F2132B1
:100840003105ECF420916702FC0190E080E0243057
:1008500069F082E00895A0911A022191AC014650FE
:100860005E4FA40FB52FB11D2C930196861798F3F8
:1008700080911A02680F60931A0280E0089581E067
:1008800008950895E0916B0280916A02E81730F4B0
:10089000F0E0E652FE4F808190E008958FEF9FEFE9
:1008A000089590916B0280916A022FEF3FEF9817A5
:1008B00048F4E92FF0E0E652FE4F208130E09F5FE0
:1008C00090936B02C901089580916A0290916B0226
:1008D000891B990B0895CF93DF93CB01EA01642F15
:1008E0000E941A04CE01DF91CF910895CF93DF9338
:1008F0001F92CDB7DEB7698361E0CE0101960E94F9
:100900001A0481E090E00F90DF91CF9108950C944C
:100910005809CF93DF93EC010E94F803CE01DF91D9
:10092000CF910C945809DC01ED91FC913697208110
:100930003181820F931F0C948904CF93DF93EC01D4
:100940000E94B003CE01DF91CF910C945809DC01D5
:10095000ED91FC91369720813181820F931F0C9489
:100960009D040C9458090C945809DC01ED91FC91FC
:10097000369720813181820F931F0C94B3040C941D
:100980005809DC01ED91FC91369720813181820F6D
:10099000931F0C94BF040C9458091F920F920FB62A
:1009A0000F9211242F933F938F939F93AF93BF93F5
:1009B0008091710290917202A0917302B0917402C1
:1009C0003091700223E0230F2D3758F50196A11DB9
:1009D000B11D209370028093710290937202A093D4
:1009E0007302B093740280916C0290916D02A09199
:1009F0006E02B0916F020196A11DB11D80936C0231
:100A000090936D02A0936E02B0936F02BF91AF916D
:100A10009F918F913F912F910F900FBE0F901F903C
:100A2000189526E8230F0296A11DB11DD2CF1F9263
:100A30000F920FB60F9211242F933F934F935F9312
:100A40006F937F938F939F93AF93BF93EF93FF9396
:100A500087EA92E00E944401FF91EF91BF91AF912C
:100A60009F918F917F916F915F914F913F912F91C6
:100A70000F900FBE0F901F9018951F920F920FB6F8
:100A80000F9211242F938F939F93EF93FF93E091F5
:100A9000B702F091B8028081E091BD02F091BE02F0
:100AA00082FD1BC090818091C0028F5F8F73209167
:100AB000C102821741F0E091C002F0E0E955FD4F1C
:100AC000958F8093C002FF91EF919F918F912F910D
:100AD0000F900FBE0F901F9018958081F4CF1F923A
:100AE0000F920FB60F9211242F933F934F935F9362
:100AF0006F937F938F939F93AF93BF93EF93FF93E6
:100B00008091B900887F803609F44AC0F0F58832B8
:100B100009F4A7C018F5803109F49BC0B8F4882304
:100B200009F4F9C0883009F494C0FF91EF91BF91A6
:100B3000AF919F918F917F916F915F914F913F9175
:100B40002F910F900FBE0F901F901895883109F4C8
:100B500088C0803251F780933D0214C0803409F47C
:100B60009DC040F48033B9F38833F9F680933D0299
:100B700085ECB0C0803509F485C0883509F496C08D
:100B8000883499F60E941004D0CF883909F48CC0BB
:100B900038F5883729F050F4883611F0803729F677
:100BA00083E08093670210923C0257C0883809F4B2
:100BB0007BC0803919F0803809F0B7CF80913C02B2
:100BC000803208F071C0E0913C0281E08E0F80938A
:100BD0003C028091BB00F0E0E45EFD4F80833DC0AD
:100BE000803B39F0E0F4803A09F479C0883A09F0A2
:100BF0009CCF84E08093670210921B0210921A022D
:100C0000E0916302F0916402099580911A028111CA
:100C10000FC081E080931A021092FA0109C0803C53
:100C200009F4A6CF883C09F4A3CF883B09F07DCF17
:100C3000E0911B0281E08E0F80931B02F0E0E650F2
:100C4000FE4F80818093BB0090911B0280911A021D
:100C500029C0809160028093BB0085EC8093BC002A
:100C600064CF90915F0280915E02981758F5E091F1
:100C70005F0281E08E0F80935F02F0E0E25CFD4F47
:100C80008081E9CFE0915F0281E08E0F80935F0267
:100C90008091BB00F0E0E25CFD4F808390915F02A9
:100CA00080915E029817C8F285E8D8CFE0915F0284
:100CB00081E08E0F80935F028091BB00F0E0E25CE8
:100CC000FD4F80838091660281115CCF81E080932B
:100CD000650284EA8093BC001092670226CF85ECFF
:100CE0008093BC001092670280913C02803230F405
:100CF000E0913C02F0E0E45EFD4F108260913C0226
:100D000070E0E0916102F09162028CE192E009955D
:100D100010923C020ACF10923D0234CFCF93DF9362
:100D2000EB0188819981A9E7B2E011969C938E939B
:100D30002A813B810697EC01E881F981E758FD4F54
:100D40003183208312961D921D921D921C9215973D
:100D500081E290E0948383838FE792E0948B838B8E
:100D60001582158ADF91CF910895CF93DF93C9E75C
:100D7000D2E081E290E09C8F8B8F1D8E1E8E1F8EA5
:100D800086E090E0A0E0B0E088A399A3AAA3BBA36B
:100D90001CA21DA21EA21FA282E391E0998F888F40
:100DA00080E288A71AA619A68FE792E09CA78BA7D6
:100DB0001DA6AC0160E871E0CE010E948E068CE8B1
:100DC00091E09983888386E991E0998F888F1A86CC
:100DD00019861C861B861E861D86188A1F861A8AFF
:100DE000198A1C8A1B8A8AE391E09F838E8387EA93
:100DF00092E09F8B8E8B88E08D8BDF91CF91089551
:100E0000DB018D919C91119790934503809344034E
:100E100012962D913C910697DC01ED91FC91EC5BD3
:100E2000FC4F3183208381E290E09483838386E4C6
:100E300093E0948B838B1582158A0895CF93DF936B
:100E4000C4E4D3E081E290E0988F8F8B198E1A8EE4
:100E50001B8E86E090E0A0E0B0E08C8F9D8FAE8F7F
:100E6000BF8F18A219A21AA21BA282E391E09D8B48
:100E70008C8B80E28CA31EA21DA286E493E098A72F
:100E80008FA319A6AC016CE971E0CE010E940007A6
:100E900088EA91E09983888382EB91E09D8B8C8B2B
:100EA0001E821D8218861F821A8619861C861B8642
:100EB0001E861D86188A1F868AE391E09B838A839B
:100EC00087EA92E09B8B8A8B80E1898BDF91CF91BF
:100ED0000895CF92DF92EF92FF920F931F93CF93DB
:100EE000DF93C7EAD2E01B821A8288EEC82E83E025
:100EF000D82EE12CF12CCC82DD82EE82FF828AEBAF
:100F000091E09983888385EC90E09D878C8784ECC1
:100F100090E09F878E8780EC90E0998B888B81ECA6
:100F200090E09B8B8A8B82EC90E09D8B8C8B86EC87
:100F300090E09F8B8E8B198E1A8E1B8E1C8EBE019D
:100F400084E493E00E941E07BE0189E792E00E94BC
:100F5000B50605E712E0F80113821282D183C0833F
:100F600068EA70E083E890E00E945508F8019383F6
:100F70008283EEE6F3E013821282C482D582E68297
:100F8000F7828CEC91E091838083DF91CF911F9168
:100F90000F91FF90EF90DF90CF900895789484B5F3
:100FA000826084BD84B5816084BD85B5826085BD65
:100FB00085B5816085BD80916E00816080936E00F3
:100FC00010928100809181008260809381008091E5
:100FD0008100816080938100809180008160809396
:100FE00080008091B10084608093B1008091B00056
:100FF00081608093B00080917A00846080937A0051
:1010000080917A00826080937A0080917A0081607A
:1010100080937A0080917A00806880937A001092A1
:10102000C10010926B0210926A0210926902109233
:1010300068021092670281E0809366021092650256
:1010400082E10E94C00083E10E94C0008091B9004B
:101050008E7F8093B9008091B9008D7F8093B90015
:1010600088E48093B80085E48093BC008BE192E033
:1010700090936402809363028CE192E09093620209
:1010800080936102C0E0D0E02097F1F30E94D30189
:101090008823D1F30E940000F7CF89E792E00E94F5
:1010A000B00384E493E00C94F8030F931F93CF9361
:1010B000DF93009759F46115710541F4F0E0E0E029
:1010C000CF01DF91CF911F910F9108958B01EC011A
:1010D0006EE070E081E090E00E94A008FC01892BA6
:1010E00069F380E883830115110571F01387028786
:1010F00081E8838380917A0390917B03892B21F48B
:10110000F0937B03E0937A032097D1F2D187C087D5
:1011100083818260838380917C0390917D03892BFE
:1011200079F6F0937D03E0937C0380917E039091A8
:101130007F03892B29F6F0937F03E0937E03C0CFD2
:101140000F931F93CF93DF93869F8001879F100D8E
:10115000969F100D1124C8010E94BC08EC01009755
:1011600029F0A80170E060E00E94E109CE01DF9162
:10117000CF911F910F9108950F931F93CF93DF93FA
:101180008230910510F482E090E0E0918203F091CA
:10119000830330E020E0B0E0A0E0309799F421151F
:1011A000310509F44AC0281B390B24303105D8F524
:1011B0008A819B816115710589F1FB01938382838B
:1011C000FE0111C0408151810281138148175907E6
:1011D000E0F04817590799F4109761F012960C93B4
:1011E000129713961C933296CF01DF91CF911F91E6
:1011F0000F9108950093820310938303F4CF211578
:10120000310551F04217530738F0A901DB019A016B
:10121000BD01DF01F801C1CFEF01F9CF9093830346
:1012200080938203CDCFFE01E20FF31F8193919350
:101230002250310939832883D7CF20918003309100
:101240008103232B41F4209102013091030130935B
:101250008103209380032091000130910101211529
:10126000310541F42DB73EB740910401509105017D
:10127000241B350BE0918003F0918103E217F30703
:10128000A0F42E1B3F0B2817390778F0AC014E5FF6
:101290005F4F2417350748F04E0F5F1F50938103AF
:1012A00040938003819391939FCFF0E0E0E09CCF47
:1012B000CF93DF930097E9F0FC01329713821282FB
:1012C000A0918203B0918303ED0130E020E01097FC
:1012D000A1F420813181820F931F209180033091EE
:1012E00081032817390709F061C0F0938103E09367
:1012F0008003DF91CF910895EA01CE17DF07E8F56B
:101300004A815B819E0141155105B1F7E901FB83DB
:10131000EA8349915991C40FD51FEC17FD0761F479
:10132000808191810296840F951FE90199838883BA
:10133000828193819B838A83F0E0E0E012968D9115
:101340009C9113970097B9F52D913C911197CD0180
:101350000296820F931F20918003309181032817FA
:10136000390739F6309751F51092830310928203B2
:10137000B0938103A0938003BCCFD383C283408109
:101380005181840F951FC817D90761F44E5F5F4FD5
:1013900088819981480F591F518340838A819B819D
:1013A000938382832115310509F0B0CFF093830335
:1013B000E09382039ECFFD01DC01C0CF1382128235
:1013C000D7CFDC0101C06D9341505040E0F7089544
:1013D000EE0FFF1F0590F491E02D099410E0C8E591
:1013E000D0E004C0FE010E94E8092196C935D1076A
:0613F000C9F7F894FFCFDD
:1013F60000008403800018000000000000000000C8
:10140600E8FFE8FF000000000000140000000000F4
:1014160000000000ECFFECFF0000000000000000F0
:1014260000000F04CB0400000000C70387047E03FE
:101436007B037803750397026A032F031603FD02E5
:101446001D02BE029A02020000000000DA03BF0479
:10145600FEFFFEFF0000C803C104060000000000F6
:101466009203B304FAFFFAFF00008003B5048C016F
:101476000C0116019601180000000000B0039D043F
:10148600E8FFE8FF0000BD03A704A80120012A0128
:10149600B201140000000000F8038904ECFFECFF21
:1014A600000005049304000000006601EE01070138
:1014B600B301380116012A010000000076046B040E
:0A14C600970241046404510442043B
:107E0000112484B714BE81FFF0D085E080938100F7
:107E100082E08093C00088E18093C10086E0809377
:107E2000C20080E18093C4008EE0C9D0259A86E02C
:107E300020E33CEF91E0309385002093840096BBD3
:107E4000B09BFECF1D9AA8958150A9F7CC24DD24C4
:107E500088248394B5E0AB2EA1E19A2EF3E0BF2EE7
:107E6000A2D0813461F49FD0082FAFD0023811F036
:107E7000013811F484E001C083E08DD089C08234E0
:107E800011F484E103C0853419F485E0A6D080C0E4
:107E9000853579F488D0E82EFF2485D0082F10E0AE
:107EA000102F00270E291F29000F111F8ED06801E7
:107EB0006FC0863521F484E090D080E0DECF843638
:107EC00009F040C070D06FD0082F6DD080E0C81688
:107ED00080E7D80618F4F601B7BEE895C0E0D1E017
:107EE00062D089930C17E1F7F0E0CF16F0E7DF06D8
:107EF00018F0F601B7BEE89568D007B600FCFDCFD4
:107F0000A601A0E0B1E02C9130E011968C91119780
:107F100090E0982F8827822B932B1296FA010C0160
:107F200087BEE89511244E5F5F4FF1E0A038BF0790
:107F300051F7F601A7BEE89507B600FCFDCF97BE46
:107F4000E89526C08437B1F42ED02DD0F82E2BD052
:107F50003CD0F601EF2C8F010F5F1F4F84911BD097
:107F6000EA94F801C1F70894C11CD11CFA94CF0C13
:107F7000D11C0EC0853739F428D08EE10CD085E9AC
:107F80000AD08FE07ACF813511F488E018D01DD067
:107F900080E101D065CF982F8091C00085FFFCCF94
:107FA0009093C60008958091C00087FFFCCF809118
:107FB000C00084FD01C0A8958091C6000895E0E648
:107FC000F0E098E1908380830895EDDF803219F02E
:107FD00088E0F5DFFFCF84E1DECF1F93182FE3DFCA
:107FE0001150E9F7F2DF1F91089580E0E8DFEE27F6
:047FF000FF270994CA
:027FFE00040479
:0400000300007E007B
:00000001FF