:100000000C945A000C9482000C9482000C94820090
:100010000C9482000C9482000C9482000C94FF06D5
:100020000C9482000C9482000C9482000C942108A1
:100030000C9482000C9482000C9482000C94820038
:100040000C94D7070C9482000C94A5070C947F079E
:100050000C9482000C9482000C9482000C94820018
:100060000C94DD080C94820000000000250028009C
:100070002B00040404040404040402020202020229
:10008000030303030303010204081020408001025C
:1000900004081020010204081020000000080002DB
:1000A000010000030407000000000000000002003F
:1000B000D70ACA0F11241FBECFEFD8E0DEBFCDBFD5
:1000C00011E0A0E0B1E0ECE6F7E202C005900D928D
:1000D000AE3EB107D9F723E0AEEEB1E001C01D920C
:1000E000AF3EB207E1F710E0C9E5D0E004C02197C8
:1000F000FE010E94A313C835D107C9F70E943C0B2B
:100100000C94A9130C9400001F93CF93DF93182F26
:10011000C091E002D091E1028A3041F4E881F98196
:100120000190F081E02D6DE0CE010995E881F98123
:100130000190F081E02D612FCE01099521E030E0A2
:10014000019711F430E020E0C901DF91CF911F91B8
:100150000895CF93DF93C091E002D091E102E8814E
:10016000F9810084F185E02DCE010995892BB9F341
:10017000E881F9810284F385E02DCE01DF91CF91F2
:1001800009942091DF0281E0213208F044C080917F
:10019000BB028111FCCF8091DE0292E09093BB0202
:1001A00091E09093BA029FEF9093B9021092B80237
:1001B0002093B702AEEBB2E0E7E9F2E090E029135A
:1001C00031C01092960290919602880F892B8093ED
:1001D000960280919502813049F5109295028091A6
:1001E00096028093BB008091BC0083FDF8CF85EC24
:1001F0008093BC008091BB028230E1F38091B90210
:100200008F3FB1F08091B9028032A1F08091B902A4
:10021000803391F084E01092BD021092DF021092C0
:10022000BC0208953D9131939F5FC9CF85EEE0CF29
:1002300080E0F1CF82E0EFCF83E0EDCFFC01538D82
:10024000448D252F30E0842F90E0821B930B5417B0
:1002500010F0CF96089501970895FC01918D828D3D
:10026000981761F0A28DAE0FBF2FB11D5D968C91D6
:10027000928D9F5F9F73928F90E008958FEF9FEF15
:100280000895FC01918D828D981731F0828DE80FD1
:10029000F11D858D90E008958FEF9FEF0895FC018B
:1002A000918D228D892F90E0805C9F4F821B910958
:1002B0008F7399270895FC01A48DA80FB92FB11D44
:1002C000A35ABF4F2C91848D90E001968F7399278C
:1002D000848FA689B7892C93A089B1898C9183706A
:1002E00080648C93938D848D981306C00288F38963
:1002F000E02D80818F7D80830895EF92FF920F9390
:100300001F93CF93DF93EC0181E0888F9B8D8C8DC1
:1003100098131AC0E889F989808185FF15C09FB7B5
:10032000F894EE89FF896083E889F9898081837078
:10033000806480839FBF81E090E0DF91CF911F9127
:100340000F91FF90EF900895F62E0B8D10E00F5F48
:100350001F4F0F731127E02E8C8D8E110CC00FB61E
:1003600007FCFACFE889F989808185FFF5CFCE01B6
:100370000E945B01F1CFEB8DEC0FFD2FF11DE35AD5
:10038000FF4FF0829FB7F8940B8FEA89FB89808139
:100390008062CFCFCF93DF93EC01888D8823B9F0B3
:1003A000AA89BB89E889F9898C9185FD03C0808180
:1003B00086FD0DC00FB607FCF7CF8C9185FFF2CFFD
:1003C000808185FFEDCFCE010E945B01E9CFDF91F7
:1003D000CF91089582E193E00E944F0121E0892BA3
:1003E00009F420E0822F089580E090E0892B29F025
:1003F0000E94EA0181110C9400000895DC01ED9146
:10040000FC910190F081E02D0994AF92BF92CF92C0
:10041000DF92EF92FF920F931F93CF93DF936C01C4
:100420007B018B01040F151FEB015E01AE18BF08A5
:10043000C017D10759F06991D601ED91FC91019057
:10044000F081E02DC6010995892B79F7C501DF916F
:10045000CF911F910F91FF90EF90DF90CF90BF90C1
:10046000AF9008950895089590E0FC01E656FF4F7F
:100470002491FC01EA57FF4F3491FC01EE58FF4FE5
:10048000E491EE23C9F0222339F0233001F1A8F4DE
:10049000213019F1223029F1F0E0EE0FFF1FE85969
:1004A000FF4FA591B4918FB7F894EC91611126C0DC
:1004B00030953E233C938FBF08952730A9F0283014
:1004C000C9F0243049F7809180008F7D03C080916E
:1004D00080008F7780938000DFCF84B58F7784BDD5
:1004E000DBCF84B58F7DFBCF8091B0008F77809379
:1004F000B000D2CF8091B0008F7DF9CF3E2BDACF04
:100500003FB7F8948091610290916202A0916302DA
:10051000B091640226B5A89B05C02F3F19F0019643
:10052000A11DB11D3FBFBA2FA92F982F8827BC014D
:10053000CD01620F711D811D911D42E0660F771F75
:10054000881F991F4A95D1F70895CB0108954F92BE
:100550005F926F927F92BF92CF92DF92EF92FF9263
:100560000F931F93CF93DF93EC0129013A018B0185
:10057000C12CD12C7601C414D504E604F7040CF088
:100580003FC0F801B1908F018F8580FF0BC0E881DB
:10059000F9810084F185E02D20E144E070E060E025
:1005A000CE010995EB85FC858D859E85E817F907B9
:1005B00060F4B0828B859C8501969C878B872FEF9A
:1005C000C21AD20AE20AF20AD6CF6B2D70E0E88195
:1005D000F981028CF38DE02DCE010995019679F712
:1005E000C701B601DF91CF911F910F91FF90EF905E
:1005F000DF90CF90BF907F906F905F904F90089565
:1006000073016201EDCFCF93DF93EC01E881F981B3
:100610000288F389E02D09958F3F980731F02D81ED
:100620003E812F5F3F4F3E832D83DF91CF91089511
:100630008FEF9FEF089560E070E0CB01089590E0A8
:1006400080E00895FF920F931F93CF93DF938C0167
:10065000EB016F3F7607B9F0F62EEAE06E1306C0A5
:100660006DE0F801808991890E94FE016F2DF801EB
:10067000808991890E94FE01CE01DF91CF911F9167
:100680000F91FF900895D0E0C0E0F6CF7F928F9257
:100690009F92AF92BF92CF92DF92EF92FF920F9311
:1006A0001F93CF93DF938C0149015A01EB01C12CB9
:1006B000D12C7601C814D904EA04FB04B4F479906F
:1006C0008AE0781206C06DE0F801808991890E9465
:1006D000FE01672DF801808991890E94FE01FFEFDC
:1006E000CF1ADF0AEF0AFF0AE5CFC501B401DF9197
:1006F000CF911F910F91FF90EF90DF90CF90BF901F
:10070000AF909F908F907F900895CF93DF93EC01EF
:1007100088899989DC01ED91FC910084F185E02DB7
:100720000995892BA9F388899989DC01ED91FC91C0
:100730000284F385E02DDF91CF910994CF93DF936D
:10074000EC0188899989DC01ED91FC910084F185A7
:10075000E02D0995892BA9F388899989DC01ED9110
:10076000FC910484F585E02DDF91CF9109948F925F
:100770009F92AF92BF92CF92DF92EF92FF920F9330
:100780001F93CF93DF938C0149015A01EB01C12CD8
:10079000D12C7601D80150968D919C91DC01ED9180
:1007A000FC910284F385E02D09958F3F61F0C81418
:1007B000D904EA04FB043CF48993BFEFCB1ADB0AAB
:1007C000EB0AFB0AE7CFC701B601DF91CF911F917A
:1007D0000F91FF90EF90DF90CF90BF90AF909F90E0
:1007E0008F900895DC0150968D919C91DC01ED91E4
:1007F000FC910084F185E02D099490E080E008955B
:1008000090E080E0089590E080E0089508950895D4
:10081000DC01ED91FC9136970190F081E02DE80F1D
:10082000F91F83E891E0918380838DE891E09783BD
:100830008683089523E831E0FC01318320832DE88D
:1008400031E0378326830895FB0120813181FC014B
:1008500031832083FB014281538126503109F90104
:1008600020813181820F931FFC01518340830895C1
:100870002FE931E0FC013183208329EA31E0318F17
:10088000208F63E971E00C942404DC01ED91FC916C
:10089000369720813181820F931F0C94380408957C
:1008A000DC01ED91FC9136970190F081E02DE80F8D
:1008B000F91F8FE691E09183808389E791E093832C
:1008C000828308952FE631E0FC013183208329E7FC
:1008D00031E0338322830895FB0120813181FC01C3
:1008E00031832083FB014281538126503109F90174
:1008F00020813181820F931FFC0151834083089531
:100900002BEB31E0FC013183208325EC31E0358B8A
:10091000248B6FEA71E00C946C04DC01ED91FC9186
:10092000369720813181820F931F0C9480040895A3
:1009300085ED8093BC008091BC0084FDFCCF1092BB
:10094000BB02089520913802260F3327331F21322E
:100950003105ECF42091BB02FC0190E080E02430F2
:1009600069F082E00895A09138022191AC01485EBF
:100970005D4FA40FB52FB11D2C930196861798F3E8
:1009800080913802680F6093380280E0089581E01A
:1009900008950895E0916A0280916902E81730F4A1
:1009A000F0E0E850FE4F808190E008958FEF9FEFD8
:1009B000089590916A02809169022FEF3FEF981796
:1009C00048F4E92FF0E0E850FE4F208130E09F5FCF
:1009D00090936A02C90108958091690290916A0218
:1009E000891B990B0895CF92DF92EF92FF920F939C
:1009F0001F93CF93DF937C01CB018A012091BC022E
:100A0000222389F0EB016B01C40ED51ECC15DD0548
:100A100069F06991D701ED91FC910190F081E02D91
:100A2000C7010995F3CF642F0E94A204C801DF918A
:100A3000CF911F910F91FF90EF90DF90CF9008958D
:100A4000CF93DF931F92CDB7DEB769832091BC02AD
:100A50002223F9F02091DF02203258F021E030E02B
:100A6000FC013383228390E080E00F90DF91CF91EF
:100A700008958091BD02E82FF0E0E254FD4F998186
:100A800090838F5F8093BD028093DF0281E090E0CE
:100A9000ECCF61E0CE0101960E94A204F7CFFC01E9
:100AA000838191E09093BC028093DE021092BD029C
:100AB0001092DF0289ED93E00E9420050C94C100A2
:100AC000CF93C42FFC01838191E09093BC0280936B
:100AD000DE021092BD021092DF0289ED93E00E94C7
:100AE00020056C2F89ED93E00E942005CF910C9496
:100AF000C1000F931F93CF93DF93EC01062F142FA8
:100B00004A816A890E946005412F013041F46C815D
:100B1000CE01DF91CF911F910F910C9460056D81F3
:100B2000F7CF0F931F93CF93DF93EC010F811885BD
:100B300041E0F8016389C8010E94600581E090E00E
:100B4000F801918380838F8198852AE0FC012283BC
:100B500040E061E00E94790540E062E08F81988585
:100B6000DF91CF911F910F910C947905CF93DF9373
:100B7000EC010E948004CE01DF91CF910C94D5103E
:100B8000DC01ED91FC91369720813181820F931F1A
:100B90000C94B605CF93DF93EC010E943804CE018C
:100BA000DF91CF910C94D510DC01ED91FC9136973B
:100BB00020813181820F931F0C94CA050C94D510AB
:100BC0000C94D510DC01ED91FC9136972081318198
:100BD000820F931F0C94E0050C94D5100C94D51043
:100BE000DC01ED91FC91369720813181820F931FBA
:100BF0000C94EE050C94D510AF92BF92CF92DF9279
:100C0000EF92FF920F931F93CF93DF93EC01EC8051
:100C1000FD80E616F70608F05DC06A018B012A81A7
:100C20003B812617370770F5CB010896281739073F
:100C300048F5A880B9809B838A8322E1AC01249F78
:100C4000C001259F900D11240E943910888399833B
:100C5000A5019C0190E080E0E816F90681F02115DD
:100C6000310539F062E1FA01D90101900D926A95DE
:100C7000E1F701964E5E5F4F2E5E3F4FEDCFC5010F
:100C80000E94D5108C819D8142E1489F9001499F2F
:100C9000300D11248017910780F4A881B981A20F2B
:100CA000B31F109731F042E1F60101900D924A9581
:100CB000E1F701962E5E3F4FEDCF1D830C83DF9150
:100CC000CF911F910F91FF90EF90DF90CF90BF9049
:100CD000AF9008956E157F0590F77D836C83EFCFFD
:100CE000FF920F931F93CF93DF93CDB7DEB7629739
:100CF0000FB6F894DEBF0FBECDBFE2E1FE2EE7E0F7
:100D0000F1E0DE01119601900D92FA94E1F7E2E034
:100D1000E9834A875B876C877D870E871F87288BCF
:100D2000398B21E02A8BFC01648175816F5F7F4FD5
:100D3000AE014F5F5F4F0E94FC0562960FB6F894BC
:100D4000DEBF0FBECDBFDF91CF911F910F91FF90FE
:100D50000895CF93DF93CDB7DEB762970FB6F894BF
:100D6000DEBF0FBECDBF22E1E7E0F1E0DE0111966C
:100D700001900D922A95E1F74E835F83688779870A
:100D8000FC01648175816F5F7F4FAE014F5F5F4FE4
:100D90000E94FC0562960FB6F894DEBF0FBECDBF71
:100DA000DF91CF910895CF93DF93CDB7DEB76297F0
:100DB0000FB6F894DEBF0FBECDBF22E1E7E0F1E051
:100DC000DE01119601900D922A95E1F721E0298329
:100DD0004E875F87688B798BFC01648175816F5FBB
:100DE0007F4FAE014F5F5F4F0E94FC0562960FB6CA
:100DF000F894DEBF0FBECDBFDF91CF9108951F9253
:100E00000F920FB60F9211242F933F934F935F933E
:100E10006F937F938F939F93AF93BF93EF93FF93C2
:100E20008091910290919202A0919302B0919402CC
:100E3000892B8A2B8B2BC1F190919002809100001D
:100E40008927809300008091910290919202A09155
:100E50009302B0919402181619061A061B069CF408
:100E60008091910290919202A0919302B09194028C
:100E70000197A109B1098093910290939202A093E6
:100E80009302B0939402FF91EF91BF91AF919F9124
:100E90008F917F916F915F914F913F912F910F9023
:100EA0000FBE0F901F90189580910001EEEAF0E0C0
:100EB000E4919FEF90930001E13051F030F0E23087
:100EC00069F060E00E943402DECF10926E00F9CF2C
:100ED00090916F009D7F90936F00F3CF9091700081
:100EE0009D7F9093700091E09093B0009091B1003D
:100EF000987F94609093B1001092B300E2CF1F925C
:100F00000F920FB60F9211242F933F934F935F933D
:100F10006F937F938F939F93AF93BF93EF93FF93C1
:100F200082E193E00E945B01FF91EF91BF91AF914D
:100F30009F918F917F916F915F914F913F912F91F1
:100F40000F900FBE0F901F9018951F920F920FB623
:100F50000F9211242F938F939F93EF93FF93E09120
:100F60002203F09123038081E0912803F09129036B
:100F700082FD1BC0908180912B038F5F8F73209126
:100F80002C03821741F0E0912B03F0E0EE5EFC4F62
:100F9000958F80932B03FF91EF919F918F912F91CC
:100FA0000F900FBE0F901F9018958081F4CF1F9265
:100FB0000F920FB60F9211242F933F938F939F930D
:100FC000AF93BF9380915D0290915E02A0915F020A
:100FD000B091600230915C0223E0230F2D3758F569
:100FE0000196A11DB11D20935C0280935D02909338
:100FF0005E02A0935F02B0936002809161029091C3
:101000006202A0916302B09164020196A11DB11D1C
:101010008093610290936202A0936302B093640292
:10102000BF91AF919F918F913F912F910F900FBEE4
:101030000F901F90189526E8230F0296A11DB11D51
:10104000D2CF1F920F920FB60F9211242F933F937E
:101050004F935F936F937F938F939F93AF93BF93C0
:10106000CF93DF93EF93FF9380915B02C0918F0248
:10107000D0E087FF24C010928500109284008091F8
:101080005B028F5F80935B0280915B02082E000CF5
:10109000990B8C179D0724F480915B028C30C4F16E
:1010A0008091840090918500049680349C4908F4D6
:1010B0007AC08091840090918500049676C08091DA
:1010C0005B02082E000C990B8C179D07C4F6E0916B
:1010D0005B028E2FEE0F990BFC01EE0FFF1FE80F46
:1010E000F91FE559FD4F808186FFC9CFE0915B0272
:1010F0008E2FEE0F990BFC01EE0FFF1FE80FF91F6B
:10110000E559FD4F808160E08F730E943402B7CFB4
:101110002091840030918500E0915B028E2FEE0FCC
:10112000990BFC01EE0FFF1FE80FF91FE559FD4F6A
:1011300081819281820F931F909389008093880010
:10114000E0915B028E2FEE0F990BFC01EE0FFF1F5B
:10115000E80FF91FE559FD4F808186FF11C0E0912E
:101160005B028E2FEE0F990BFC01EE0FFF1FE80FB5
:10117000F91FE559FD4F808161E08F730E943402B1
:10118000FF91EF91DF91CF91BF91AF919F918F919F
:101190007F916F915F914F913F912F910F900FBE73
:1011A0000F901F90189580E49CE99093890080939C
:1011B00088008FEF80935B02E3CF1F920F920FB6F0
:1011C0000F9211242F933F934F935F936F937F93CD
:1011D0008F939F93AF93BF93EF93FF938091B90049
:1011E000887F803609F44AC0F0F5883209F4A7C038
:1011F00018F5803109F49BC0B8F4882309F4F9C0CC
:10120000883009F494C0FF91EF91BF91AF919F9105
:101210008F917F916F915F914F913F912F910F909F
:101220000FBE0F901F901895883109F488C0803246
:1012300051F78093B90214C0803409F49DC040F482
:101240008033B9F38833F9F68093B90285ECB0C0E6
:10125000803509F485C0883509F496C0883499F63C
:101260000E949804D0CF883909F48CC038F58837AB
:1012700029F050F4883611F0803729F683E0809306
:10128000BB0210925A0257C0883809F47BC08039DB
:1012900019F0803809F0B7CF80915A02803208F0F7
:1012A00071C0E0915A0281E08E0F80935A028091C2
:1012B000BB00F0E0E65CFD4F80833DC0803B39F031
:1012C000E0F4803A09F479C0883A09F09CCF84E0D0
:1012D0008093BB021092390210923802E0916702AB
:1012E000F091680209958091380281110FC081E068
:1012F000809338021092180209C0803C09F4A6CFEE
:10130000883C09F4A3CF883B09F07DCFE0913902F6
:1013100081E08E0F80933902F0E0E85EFD4F80811E
:101320008093BB00909139028091380229C080914E
:1013300096028093BB0085EC8093BC0064CF9091B3
:10134000B8028091B702981758F5E091B80281E091
:101350008E0F8093B802F0E0E956FD4F8081E9CF0F
:10136000E091B80281E08E0F8093B8028091BB00BB
:10137000F0E0E956FD4F80839091B8028091B7026A
:101380009817C8F285E8D8CFE091B80281E08E0FB7
:101390008093B8028091BB00F0E0E956FD4F808356
:1013A0008091BA0281115CCF81E08093950284EA3A
:1013B0008093BC001092BB0226CF85EC8093BC00CA
:1013C0001092BB0280915A02803230F4E0915A02AE
:1013D000F0E0E65CFD4F108260915A0270E0E0910F
:1013E0006502F09166028AE392E0099510925A0232
:1013F0000ACF1092B90234CFCF93DF93EB018881EB
:101400009981A4EEB2E011969C938E932A813B8140
:101410000697EC01E881F981EC51FD4F318320837F
:1014200012961D921D921D921C92159781E290E0DA
:10143000948383838AEE92E0948B838B1582158A42
:10144000DF91CF910895CF93DF93C4EED2E081E294
:1014500090E09C8F8B8F1D8E1E8E1F8E86E090E0FD
:10146000A0E0B0E088A399A3AAA3BBA31CA21DA2DD
:101470001EA21FA285E491E0998F888F80E288A741
:101480001AA619A68AEE92E09CA78BA71DA6AC010E
:1014900063E971E0CE010E94FC098FE991E0998334
:1014A000888389EA91E0998F888F1A8619861C862D
:1014B0001B861E861D86188A1F861A8A198A1C8A10
:1014C0001B8A8DE491E09F838E8382E193E09F8B62
:1014D0008E8B88E08D8BDF91CF910895DB018D910C
:1014E0009C9111979093B0038093AF0312962D9126
:1014F0003C910697DC01ED91FC91E155FC4F318365
:10150000208381E290E09483838381EB93E0948B4A
:10151000838B1582158A0895CF93DF93CFEAD3E0AA
:1015200081E290E0988F8F8B198E1A8E1B8E86E049
:1015300090E0A0E0B0E08C8F9D8FAE8FBF8F18A29F
:1015400019A21AA21BA285E491E09D8B8C8B80E2EC
:101550008CA31EA21DA281EB93E098A78FA319A6CE
:10156000AC016FEA71E0CE010E946E0A8BEB91E054
:101570009983888385EC91E09D8B8C8B1E821D82E4
:1015800018861F821A8619861C861B861E861D8653
:10159000188A1F868DE491E09B838A8382E193E021
:1015A0009B8B8A8B80E1898BDF91CF910895CF92BD
:1015B000DF92EF92FF920F931F93CF93DF93C2E1DD
:1015C000D3E01B821A8288EEC82E83E0D82EE12C4D
:1015D000F12CCC82DD82EE82FF828DEC91E099834A
:1015E000888385EC90E09D878C8784EC90E09F87D2
:1015F0008E8780EC90E0998B888B81EC90E09B8BC0
:101600008A8B82EC90E09D8B8C8B86EC90E09F8B9C
:101610008E8B198E1A8E1B8E1C8EBE018FEA93E064
:101620000E948C0ABE0184EE92E00E94230A00EE22
:1016300012E0F80113821282D183C08369EA70E05C
:1016400084E890E00E94D20FF80193838283E9ED51
:10165000F3E013821282C482D582E682F7828FED94
:1016600091E091838083DF91CF911F910F91FF9043
:10167000EF90DF90CF900895CF93DF93CDB7DEB793
:10168000E6970FB6F894DEBF0FBECDBF789484B551
:10169000826084BD84B5816084BD85B5826085BD6E
:1016A00085B5816085BD80916E00816080936E00FC
:1016B00010928100809181008260809381008091EE
:1016C000810081608093810080918000816080939F
:1016D00080008091B10084608093B1008091B0005F
:1016E00081608093B00080917A00846080937A005A
:1016F00080917A00826080937A0080917A00816084
:1017000080937A0080917A00806880937A001092AA
:10171000C10010926A02109269021092BD021092EA
:10172000DF021092BB0211E01093BA0210929502F0
:1017300061E082E10E94340261E083E10E943402B0
:101740008091B9008E7F8093B9008091B9008D7F20
:101750008093B90088E48093B80085E48093BC004E
:1017600082E392E0909368028093670283E392E0C1
:10177000909366028093650288E090E09C838B835F
:101780001E821D8280E990E00E9439109A8389832D
:1017900089E190E00E943910FC0181E090E09183A2
:1017A000808385E0828398E593831482158392E099
:1017B000968393E0978394E09087818786E0828781
:1017C00087E0838788E0848789E085878AE0868749
:1017D0008BE087878CE0808B8DE0818B8EE0828B25
:1017E00080E1838B80E2848B80E3858B81E3868B31
:1017F00082E3878B83E3808FF987E88780918F026C
:101800008C3008F0F8C191E0980F90938F028A878E
:1018100090E0FC01EE0FFF1FE80FF91FE559FD4FA7
:1018200088EB9BE0928381831D861E8680E090E09A
:10183000A0E2B1E48F87988BA98BBA8B8DEC9CECDE
:10184000ACE4BEE38B8B9C8BAD8BBE8B80E090E0D9
:10185000A0EEB1E48F8B988FA98FBA8F40E050E053
:1018600068E072E4CE0101960E94A90640E050E0D3
:1018700064EB72E4CE0101960E94D30640E050E092
:1018800060ED71E4CE0101960E94A90640E050E0AF
:1018900064EB72ECCE0101960E94D30640E050E06A
:1018A00068E472E4CE0101960E94A90640E050E08F
:1018B00064EB72ECCE0101960E94D30600E010E0CA
:1018C00024EB32E440E050E060ED71E4CE0101969B
:1018D0000E94700640E050E064EB72E4CE01019695
:1018E0000E94D30640E050E064E872E4CE01019625
:1018F0000E94A90640E050E064EB72ECCE01019634
:101900000E94D30640E050E060E272E4CE0101960E
:101910000E94A90640E050E064EB72ECCE01019613
:101920000E94D30640E050E060E272E4CE010196EE
:101930000E94A90640E050E064EB72ECCE010196F3
:101940000E94D30640E050E060E272E4CE010196CE
:101950000E94A90640E050E060E272ECCE010196E0
:101960000E94D3064DEC5CEC68E772E4CE01019670
:101970000E94A90640E050E06CE073ECCE010196B5
:101980000E94D30640E050E060E971E4CE01019688
:101990000E94A90640E050E064EB72E4CE0101969B
:1019A0000E94D30600E010E027E833E440E050E076
:1019B00060E971E4CE0101960E9470064AE959E996
:1019C0006EE073ECCE0101960E94D3064DEC5CEC08
:1019D00064E172E4CE0101960E94A90643E353E359
:1019E0006BE272E4CE0101960E94A9060E94800279
:1019F0004B015C0188EEC82E83E0D82EE12CF12C3F
:101A00000E948002681979098A099B09683E73401F
:101A100081059105A8F321E0C21AD108E108F10877
:101A200088EE880E83E0981EA11CB11CC114D1045D
:101A3000E104F10429F729803A804D815E8162E159
:101A4000649F9001659F300D1124F101E20FF31F97
:101A5000FEABEDAB8DA99EA98215930509F48AC250
:101A600082E1F101DE015B9601900D928A95E1F72A
:101A7000D1018C918111CAC08C8C9D8CAE8CBF8C95
:101A800048A059A06AA07BA00885198541E0F8010B
:101A90006389C8010E946005E1E0F0E0D801ED93A0
:101AA000FC9388859985DC0154966C910E944F05C2
:101AB000E884F98425E0F701228320E030E04EEF4E
:101AC00052E4C501B4010E9436134B015C010E942F
:101AD0004912462F61E0C7010E947905C501B40192
:101AE00090580E944912462F62E0888599850E948D
:101AF000790520E030E0A901C301B2010E9465111F
:101B00006DA77EA78FA798AB20E030E0A901C301A5
:101B1000B2010E9466116B017C0110E020E030E010
:101B2000A9016DA57EA58FA598A90E94311387FDF7
:101B300065C020E030E0A901C701B6010E94311361
:101B400087FD5CC0111142C08F859889A989BA8927
:101B500089AB9AABABABBCAB9C01AD016DA57EA5CF
:101B60008FA598A90E94D211181654F429A93AA950
:101B70004BA95CA9C701B6010E94D211181634F115
:101B8000E884F984E5E0D7011296EC932B893C892F
:101B90004D895E89C501B4010E9436130E94491225
:101BA000462F61E0C7010E9479052B893C894D8948
:101BB0005E89C501B4010E9436130E944912462F66
:101BC00062E0888599850E94790511E020E030E087
:101BD000A901C301B2010E9465116DA77EA78FA75D
:101BE00098AB20E030E0A901C301B2010E94661168
:101BF0006B017C0193CF8FEF8A8716CECE010196C1
:101C00000E94910582E1280E311C24CF813009F019
:101C1000D4C08C8C9D8CAE8CBF8C88A199A1AAA1BC
:101C2000BBA18DA79EA7AFA7B8AB20E030E044EBE7
:101C300053E468A579A58AA59BA50E94D71125E242
:101C400036E049E450E40E9436132F89388D498DDF
:101C50005A8D0E9436136B017C010885198541E07D
:101C6000D80153966C91C8010E94600581E090E014
:101C7000F8019183808388859985DC0154966C9165
:101C80000E944F050885198525E0F801228320E090
:101C900030E04EEF52E4C501B4010E9436132B012F
:101CA0003C010E944912B62E462F61E0C8010E94F5
:101CB00079054B2D62E0888599850E94790520E0A1
:101CC00030E0A901C701B6010E9465114B015C011A
:101CD00020E030E0A901C701B6010E9465116B0147
:101CE0007C0110E020E030E0A901C501B4010E94B0
:101CF000311387FD83CF20E030E0A901C701B60191
:101D00000E94311387FD7ACF111140C08F859889C9
:101D1000A989BA8989AB9AABABABBCAB9C01AD01CD
:101D2000C501B4010E94D211181654F429A93AA988
:101D30004BA95CA9C701B6010E94D211181634F153
:101D400008851985E5E0D8011296EC932B893C892A
:101D50004D895E89C301B2010E9436130E94491267
:101D6000462F61E0C8010E9479052B893C894D8985
:101D70005E89C301B2010E9436130E944912462FA8
:101D800062E0888599850E94790511E020E030E0C5
:101D9000A9016DA57EA58FA598A90E9465114B018B
:101DA0005C0120E030E0A9016DA57EA58FA598A972
:101DB0000E9465116B017C0195CF823009F022CF22
:101DC000CCA0DDA0EEA0FFA020E030E040E05FE38B
:101DD0006F89788D898D9A8D0E9436134B015C0135
:101DE000AC019B01C701B6010E94311318160CF01B
:101DF00009CF20E030E044EB53E468A579A58AA53B
:101E00009BA50E94D71125E236E049EC50E40E94E0
:101E100036132B013C01A5019401C701B6010E94B4
:101E20006611A30192010E9436136DA77EA78FA7AA
:101E300098ABA5019401C701B6010E946511A301E9
:101E400092010E94361369AB7AAB8BAB9CAB20E05E
:101E500030E04EEF52E46C8D7D8D8E8D9F8D0E9413
:101E600036134B015C018CA511E00FEF882311F0B4
:101E70001FEF01E0E884F98441E0D70153966C91AB
:101E8000C7010E94600581E090E0F70191838083A3
:101E900088859985DC0154966C910E944F05E884F1
:101EA000F9842AE0F7012283C501B4010E94491296
:101EB000462F61E0C7010E947905C501B401905821
:101EC0000E944912462F62E0888599850E94790513
:101ED000602F000F770B880B990B0E9481124B012A
:101EE0005C0120E030E0A9010E9436139B01AC01A7
:101EF0006DA57EA58FA598A90E9465116B017C0137
:101F0000612F110F770B880B990B0E9481122B0107
:101F10003C0120E030E0A901C301B2010E94361368
:101F20009B01AC0169A97AA98BA99CA90E946511A2
:101F300020E030E0A9010E94311387FD5FCE20E050
:101F400030E0A901C701B6010E94311387FD56CECA
:101F500020E030E0A901C501B4010E9436139B01C5
:101F6000AC016DA57EA58FA598A90E9465116B0196
:101F70007C01CFCF89819A810E94D51000E010E0CA
:101F800001151105E9F30E94EA018823C9F30E94B3
:101F90000000F6CF84EE92E00E9438048FEA93E0CE
:101FA0000C9480040F931F93CF93DF93009759F401
:101FB0006115710541F4F0E0E0E0CF01DF91CF91D0
:101FC0001F910F9108958B01EC016EE070E081E0AC
:101FD00090E00E941D10FC01892B69F380E8838347
:101FE0000115110571F01387028781E883838091C1
:101FF000E5039091E603892B21F4F093E603E09347
:10200000E5032097D1F2D187C087838182608383E3
:102010008091E7039091E803892B79F6F093E80328
:10202000E093E7038091E9039091EA03892B29F675
:10203000F093EA03E093E903C0CF0F931F93CF938C
:10204000DF93869F8001879F100D969F100D1124AE
:10205000C8010E943910EC01009729F0A80170E036
:1020600060E00E945E11CE01DF91CF911F910F9130
:1020700008950F931F93CF93DF938230910510F44F
:1020800082E090E0E091ED03F091EE0330E020E09B
:10209000B0E0A0E0309799F42115310509F44AC069
:1020A000281B390B24303105D8F58A819B816115B5
:1020B000710589F1FB0193838283FE0111C0408188
:1020C00051810281138148175907E0F048175907D9
:1020D00099F4109761F012960C93129713961C9333
:1020E0003296CF01DF91CF911F910F910895009308
:1020F000ED031093EE03F4CF2115310551F0421793
:10210000530738F0A901DB019A01BD01DF01F80195
:10211000C1CFEF01F9CF9093EE038093ED03CDCFC4
:10212000FE01E20FF31F819391932250310939830D
:102130002883D7CF2091EB033091EC03232B41F47C
:1021400020910301309104013093EC032093EB03C1
:1021500020910101309102012115310541F42DB783
:102160003EB74091050150910601241B350BE091CB
:10217000EB03F091EC03E217F307A0F42E1B3F0BE7
:102180002817390778F0AC014E5F5F4F24173507E9
:1021900048F04E0F5F1F5093EC034093EB03819385
:1021A00091939FCFF0E0E0E09CCFCF93DF93009737
:1021B000E9F0FC01329713821282A091ED03B091F5
:1021C000EE03ED0130E020E01097A1F42081318191
:1021D000820F931F2091EB033091EC0328173907EE
:1021E00009F061C0F093EC03E093EB03DF91CF9132
:1021F0000895EA01CE17DF07E8F54A815B819E0169
:1022000041155105B1F7E901FB83EA8349915991E1
:10221000C40FD51FEC17FD0761F4808191810296F0
:10222000840F951FE90199838883828193819B8321
:102230008A83F0E0E0E012968D919C9113970097CD
:10224000B9F52D913C911197CD010296820F931F04
:102250002091EB033091EC032817390739F63097BA
:1022600051F51092EE031092ED03B093EC03A0939E
:10227000EB03BCCFD383C28340815181840F951F70
:10228000C817D90761F44E5F5F4F88819981480F65
:10229000591F518340838A819B81938382832115B7
:1022A000310509F0B0CFF093EE03E093ED039ECF3C
:1022B000FD01DC01C0CF13821282D7CFDC0101C047
:1022C0006D9341505040E0F708955058BB27AA271E
:1022D0000E947D110C94F7120E94E91238F00E94BE
:1022E000F01220F039F49F3F19F426F40C94E61212
:1022F0000EF4E095E7FB0C94E012E92F0E9408131E
:1023000058F3BA17620773078407950720F079F42A
:10231000A6F50C942A130EF4E0950B2EBA2FA02DDF
:102320000B01B90190010C01CA01A0011124FF2782
:10233000591B99F0593F50F4503E68F11A16F0407D
:10234000A22F232F342F4427585FF3CF469537957C
:102350002795A795F0405395C9F77EF41F16BA0B41
:10236000620B730B840BBAF09150A1F0FF0FBB1FEF
:10237000661F771F881FC2F70EC0BA0F621F731F38
:10238000841F48F4879577956795B795F7959E3F95
:1023900008F0B0CF9395880F08F09927EE0F979526
:1023A000879508950E94BC1208F481E008950E9468
:1023B000EB110C94F7120E94F01258F00E94E912EF
:1023C00040F029F45F3F29F00C94E01251110C9475
:1023D0002B130C94E6120E94081368F39923B1F3AF
:1023E000552391F3951B550BBB27AA27621773073B
:1023F000840738F09F5F5F4F220F331F441FAA1FCF
:10240000A9F335D00E2E3AF0E0E832D0915050408A
:10241000E695001CCAF72BD0FE2F29D0660F771F38
:10242000881FBB1F261737074807AB07B0E809F01E
:10243000BB0B802DBF01FF2793585F4F3AF09E3FA3
:10244000510578F00C94E0120C942B135F3FE4F3E9
:10245000983ED4F3869577956795B795F7959F5FE6
:10246000C9F7880F911D9695879597F90895E1E032
:10247000660F771F881FBB1F621773078407BA0791
:1024800020F0621B730B840BBA0BEE1F88F7E095EC
:1024900008950E9450126894B1110C942B13089562
:1024A0000E94101388F09F5798F0B92F9927B751C1
:1024B000B0F0E1F0660F771F881F991F1AF0BA95E8
:1024C000C9F714C0B13091F00E942A13B1E0089509
:1024D0000C942A13672F782F8827B85F39F0B93FFB
:1024E000CCF3869577956795B395D9F73EF490959B
:1024F0008095709561957F4F8F4F9F4F0895E89419
:1025000009C097FB3EF490958095709561957F4F3B
:102510008F4F9F4F9923A9F0F92F96E9BB279395E9
:10252000F695879577956795B795F111F8CFFAF4F9
:10253000BB0F11F460FF1BC06F5F7F4F8F4F9F4F2A
:1025400016C0882311F096E911C0772321F09EE888
:10255000872F762F05C0662371F096E8862F70E0EE
:1025600060E02AF09A95660F771F881FDAF7880FC8
:102570009695879597F90895990F0008550FAA0B1E
:10258000E0E8FEEF16161706E807F907C0F0121686
:102590001306E407F50798F0621B730B840B950B89
:1025A00039F40A2661F0232B242B252B21F40895DE
:1025B0000A2609F4A140A6958FEF811D811D08957B
:1025C00097F99F6780E870E060E008959FEF80ECE6
:1025D000089500240A941616170618060906089589
:1025E00000240A9412161306140605060895092EEF
:1025F0000394000C11F4882352F0BB0F40F4BF2B5E
:1026000011F460FF04C06F5F7F4F8F4F9F4F08959D
:1026100057FD9058440F551F59F05F3F71F0479593
:10262000880F97FB991F61F09F3F79F08795089578
:10263000121613061406551FF2CF4695F1DF08C097
:10264000161617061806991FF1CF869571056105B4
:1026500008940895E894BB2766277727CB0197F95C
:1026600008950E94BC1208F48FEF08950E94491348
:102670000C94F7120E94E91238F00E94F01220F038
:10268000952311F00C94E0120C94E61211240C9492
:102690002B130E94081370F3959FC1F3950F50E020
:1026A000551F629FF001729FBB27F00DB11D639F04
:1026B000AA27F00DB11DAA1F649F6627B00DA11DAA
:1026C000661F829F2227B00DA11D621F739FB00D50
:1026D000A11D621F839FA00D611D221F749F3327C0
:1026E000A00D611D231F849F600D211D822F762F59
:1026F0006A2F11249F5750409AF0F1F088234AF036
:10270000EE0FFF1FBB1F661F771F881F91505040A1
:10271000A9F79E3F510580F00C94E0120C942B1306
:102720005F3FE4F3983ED4F3869577956795B79528
:10273000F795E7959F5FC1F7FE2B880F911D969542
:10274000879597F90895EE0FFF1F0590F491E02DFE
:10275000099410E0C9E5D0E004C0FE010E94A31373
:0C2760002196CA35D107C9F7F894FFCFC5
:10276C00FF0000EF038000000000803F000000002D
:10277C000000000000000000011800000000000034
:10278C00000000E8FFE8FF0000000000001400005B
:10279C0000000000000000ECFFECFF000000000057
:1027AC0000000000009704FA05000000004F04EC44
:1027BC0005060403040004FD031F03F203B7039E84
:1027CC00038503A5024603220302000000000062F9
:1027DC0004EE05FEFFFEFF00005004F005060000AD
:1027EC000000001A04E005FAFFFAFF00000804E2FA
:1027FC00059F011F012901A90118000000000038E4
:10280C0004CA05E8FFE8FF00004504D405BB01330A
:10281C00013D01C5011400000000008004B605EC68
:10282C00FFECFF00008D04C005000000007D0105D9
:10283C00021E01CA014F012D0141010000000020C0
:0E284C0005F3041F03C904EC04D904CA0400F8
:00000001FF
