:100000000C9459000C9481000C9481000C94810094
:100010000C9481000C9481000C9481000C9481005C
:100020000C9481000C9481000C9481000C9481004C
:100030000C9481000C9481000C9481000C9481003C
:100040000C9451070C9481000C941F070C94F90632
:100050000C9481000C9481000C9481000C9481001C
:100060000C949B070C9481000000000025002800E0
:100070002B00040404040404040402020202020229
:10008000030303030303010204081020408001025C
:1000900004081020010204081020000000080002DB
:1000A00001000003040700000000000000009509A3
:1000B0006B0E11241FBECFEFD8E0DEBFCDBF11E025
:1000C000A0E0B1E0EEEAF4E202C005900D92AC3E91
:1000D000B107D9F723E0ACEEB1E001C01D92A83B17
:1000E000B207E1F710E0C8E5D0E004C02197FE01B7
:1000F0000E944412C735D107C9F70E94FA090C942F
:100100004A120C9400001F93CF93DF93182FC091D5
:10011000A902D091AA028A3041F4E881F9810190C4
:10012000F081E02D6DE0CE010995E881F981019023
:10013000F081E02D612FCE01099521E030E001979B
:1001400011F430E020E0C901DF91CF911F910895B3
:10015000CF93DF93C091A902D091AA02E881F981DF
:100160000084F185E02DCE010995892BB9F3E88152
:10017000F9810284F385E02DCE01DF91CF910994BE
:100180002091A80281E0213208F044C080918402CD
:100190008111FCCF8091A70292E09093840291E0BC
:1001A000909383029FEF909382021092810220939A
:1001B0008002A7E8B2E0E0E6F2E090E0291331C067
:1001C00010925F0290915F02880F892B80935F02EB
:1001D00080915E02813049F510925E0280915F024B
:1001E0008093BB008091BC0083FDF8CF85EC8093A9
:1001F000BC00809184028230E1F3809182028F3FC3
:10020000B1F0809182028032A1F08091820280332D
:1002100091F084E0109286021092A802109285025A
:1002200008953D9131939F5FC9CF85EEE0CF80E087
:10023000F1CF82E0EFCF83E0EDCF90E0FC01E65616
:10024000FF4F2491FC01EA57FF4F3491FC01EE5817
:10025000FF4FE491EE23B1F0222339F02330E9F08F
:1002600090F4213001F1223011F1F0E0EE0FFF1F88
:10027000E859FF4FA591B4918FB7F894EC913E2BBC
:100280003C938FBF08952730A9F02830C9F024305F
:1002900061F7809180008F7D03C0809180008F770F
:1002A00080938000E2CF84B58F7784BDDECF84B5A4
:1002B0008F7DFBCF8091B0008F778093B000D5CF3A
:1002C0008091B0008F7DF9CFFC01538D448D252F97
:1002D00030E0842F90E0821B930B541710F0CF96E0
:1002E000089501970895FC01918D828D981761F012
:1002F000A28DAE0FBF2FB11D5D968C91928D9F5F29
:100300009F73928F90E008958FEF9FEF0895FC0107
:10031000918D828D981731F0828DE80FF11D858DBA
:1003200090E008958FEF9FEF0895FC01918D228D4D
:10033000892F90E0805C9F4F821B91098F739927D2
:100340000895FC01A48DA80FB92FB11DA35ABF4F6A
:100350002C91848D90E001968F739927848FA689C4
:10036000B7892C93A089B1898C91837080648C9318
:10037000938D848D981306C00288F389E02D8081C7
:100380008F7D80830895EF92FF920F931F93CF93F9
:10039000DF93EC0181E0888F9B8D8C8D98131AC0C0
:1003A000E889F989808185FF15C09FB7F894EE89A7
:1003B000FF896083E889F989808183708064808304
:1003C0009FBF81E090E0DF91CF911F910F91FF904F
:1003D000EF900895F62E0B8D10E00F5F1F4F0F73F7
:1003E0001127E02E8C8D8E110CC00FB607FCFACFB2
:1003F000E889F989808185FFF5CFCE010E94A101AE
:10040000F1CFEB8DEC0FFD2FF11DE35AFF4FF08282
:100410009FB7F8940B8FEA89FB8980818062CFCFE8
:10042000CF93DF93EC01888D8823B9F0AA89BB892B
:10043000E889F9898C9185FD03C0808186FD0DC016
:100440000FB607FCF7CF8C9185FFF2CF808185FF37
:10045000EDCFCE010E94A101E9CFDF91CF910895A8
:100460008BED92E00E94950121E0892B09F420E0B8
:10047000822F089580E090E0892B29F00E943002BD
:1004800081110C9400000895DC01ED91FC91019024
:10049000F081E02D0994AF92BF92CF92DF92EF925C
:1004A000FF920F931F93CF93DF936C017B018B011E
:1004B000040F151FEB015E01AE18BF08C017D1076E
:1004C00059F06991D601ED91FC910190F081E02DF8
:1004D000C6010995892B79F7C501DF91CF911F914D
:1004E0000F91FF90EF90DF90CF90BF90AF90089565
:1004F000089508953FB7F894809154029091550261
:10050000A0915602B091570226B5A89B05C02F3F77
:1005100019F00196A11DB11D3FBFBA2FA92F982F29
:100520008827BC01CD01620F711D811D911D42E024
:10053000660F771F881F991F4A95D1F70895CB0141
:1005400008954F925F926F927F92BF92CF92DF9207
:10055000EF92FF920F931F93CF93DF93EC0129014A
:100560003A018B01C12CD12C7601C414D504E604C8
:10057000F7040CF03FC0F801B1908F018F8580FF28
:100580000BC0E881F9810084F185E02D20E144E091
:1005900070E060E0CE010995EB85FC858D859E8538
:1005A000E817F90760F4B0828B859C8501969C87DB
:1005B0008B872FEFC21AD20AE20AF20AD6CF6B2D2E
:1005C00070E0E881F981028CF38DE02DCE01099570
:1005D000019679F7C701B601DF91CF911F910F9175
:1005E000FF90EF90DF90CF90BF907F906F905F90E3
:1005F0004F90089573016201EDCFCF93DF93EC012B
:10060000E881F9810288F389E02D09958F3F9807E9
:1006100031F02D813E812F5F3F4F3E832D83DF914F
:10062000CF9108958FEF9FEF089560E070E0CB01C8
:10063000089590E080E00895FF920F931F93CF9369
:10064000DF938C01EB016F3F7607B9F0F62EEAE0FD
:100650006E1306C06DE0F801808991890E94440202
:100660006F2DF801808991890E944402CE01DF91AB
:10067000CF911F910F91FF900895D0E0C0E0F6CF89
:100680007F928F929F92AF92BF92CF92DF92EF9222
:10069000FF920F931F93CF93DF938C0149015A016F
:1006A000EB01C12CD12C7601C814D904EA04FB0457
:1006B000B4F479908AE0781206C06DE0F801808980
:1006C00091890E944402672DF801808991890E94D6
:1006D0004402FFEFCF1ADF0AEF0AFF0AE5CFC50198
:1006E000B401DF91CF911F910F91FF90EF90DF90B8
:1006F000CF90BF90AF909F908F907F900895CF93B1
:10070000DF93EC0188899989DC01ED91FC910084EB
:10071000F185E02D0995892BA9F388899989DC0158
:10072000ED91FC910284F385E02DDF91CF91099446
:10073000CF93DF93EC0188899989DC01ED91FC91DD
:100740000084F185E02D0995892BA9F38889998981
:10075000DC01ED91FC910484F585E02DDF91CF91D2
:1007600009948F929F92AF92BF92CF92DF92EF92B5
:10077000FF920F931F93CF93DF938C0149015A018E
:10078000EB01C12CD12C7601D80150968D919C9112
:10079000DC01ED91FC910284F385E02D09958F3FFA
:1007A00061F0C814D904EA04FB043CF48993BFEF58
:1007B000CB1ADB0AEB0AFB0AE7CFC701B601DF91D0
:1007C000CF911F910F91FF90EF90DF90CF90BF904E
:1007D000AF909F908F900895DC0150968D919C91E1
:1007E000DC01ED91FC910084F185E02D099490E00D
:1007F00080E0089590E080E0089590E080E0089522
:1008000008950895DC01ED91FC9136970190F081F7
:10081000E02DE80FF91F82E891E0918380838CE856
:1008200091E097838683089522E831E0FC013183CB
:1008300020832CE831E0378326830895FB01208153
:100840003181FC0131832083FB0142815381265099
:100850003109F90120813181820F931FFC015183FD
:10086000408308952EE931E0FC013183208328EA9A
:1008700031E0318F208F62E971E00C941E04DC01BD
:10088000ED91FC91369720813181820F931F0C945A
:1008900032040895DC01ED91FC9136970190F081CE
:1008A000E02DE80FF91F8EE691E09183808388E7C1
:1008B00091E09383828308952EE631E0FC01318339
:1008C000208328E731E0338322830895FB012081D0
:1008D0003181FC0131832083FB0142815381265009
:1008E0003109F90120813181820F931FFC0151836D
:1008F000408308952AEB31E0FC013183208324EC0E
:1009000031E0358B248B6EEA71E00C946604DC01D7
:10091000ED91FC91369720813181820F931F0C94C9
:100920007A04089585ED8093BC008091BC0084FD1D
:10093000FCCF10928402089520912C02260F3327B9
:10094000331F21323105ECF420918402FC0190E048
:1009500080E0243069F082E00895A0912C0221917A
:10096000AC01445F5D4FA40FB52FB11D2C930196D0
:10097000861798F380912C02680F60932C0280E018
:10098000089581E008950895E0915D0280915C02F0
:10099000E81730F4F0E0E451FE4F808190E00895D4
:1009A0008FEF9FEF089590915D0280915C022FEF91
:1009B0003FEF981748F4E92FF0E0E451FE4F208113
:1009C00030E09F5F90935D02C901089580915C02C1
:1009D00090915D02891B990B0895CF92DF92EF925F
:1009E000FF920F931F93CF93DF937C01CB018A017A
:1009F00020918502222389F0EB016B01C40ED51EE4
:100A0000CC15DD0569F06991D701ED91FC9101905C
:100A1000F081E02DC7010995F3CF642F0E949C045B
:100A2000C801DF91CF911F910F91FF90EF90DF9060
:100A3000CF900895CF93DF931F92CDB7DEB7698330
:100A4000209185022223F9F02091A802203258F04B
:100A500021E030E0FC013383228390E080E00F90BE
:100A6000DF91CF91089580918602E82FF0E0E95759
:100A7000FD4F998190838F5F809386028093A802B7
:100A800081E090E0ECCF61E0CE0101960E949C04F1
:100A9000F7CFFC01838191E0909385028093A702B8
:100AA000109286021092A80282EA93E00E941A0530
:100AB0000C94C000CF93C42FFC01838191E09093EC
:100AC00085028093A702109286021092A80282EA01
:100AD00093E00E941A056C2F82EA93E00E941A05A7
:100AE000CF910C94C0000F931F93CF93DF93EC0131
:100AF000062F142F4A816A890E945A05412F01301E
:100B000041F46C81CE01DF91CF911F910F910C9434
:100B10005A056D81F7CF0F931F93CF93DF93EC01AD
:100B20000F81188541E0F8016389C8010E945A05C8
:100B300081E090E0F801918380838F8198852AE09D
:100B4000FC01228340E061E00E94730540E062E026
:100B50008F819885DF91CF911F910F910C94730530
:100B6000CF93DF93EC010E947A04CE01DF91CF9105
:100B70000C94760FDC01ED91FC9136972081318148
:100B8000820F931F0C94B005CF93DF93EC010E946A
:100B90003204CE01DF91CF910C94760FDC01ED9100
:100BA000FC91369720813181820F931F0C94C405EC
:100BB0000C94760F0C94760FDC01ED91FC91369736
:100BC00020813181820F931F0C94DA050C94760FEB
:100BD0000C94760FDC01ED91FC91369720813181E8
:100BE000820F931F0C94E8050C94760FAF92BF927E
:100BF000CF92DF92EF92FF920F931F93CF93DF93E9
:100C0000EC01EC80FD80E616F70608F05DC06A0195
:100C10008B012A813B812617370770F5CB01089697
:100C20002817390748F5A880B9809B838A8322E179
:100C3000AC01249FC001259F900D11240E94DA0E63
:100C400088839983A5019C0190E080E0E816F9066D
:100C500081F02115310539F062E1FA01D9010190E5
:100C60000D926A95E1F701964E5E5F4F2E5E3F4F03
:100C7000EDCFC5010E94760F8C819D8142E1489F96
:100C80009001499F300D11248017910780F4A881AD
:100C9000B981A20FB31F109731F042E1F601019024
:100CA0000D924A95E1F701962E5E3F4FEDCF1D83E1
:100CB0000C83DF91CF911F910F91FF90EF90DF9008
:100CC000CF90BF90AF9008956E157F0590F77D830C
:100CD0006C83EFCFFF920F931F93CF93DF93CDB72A
:100CE000DEB762970FB6F894DEBF0FBECDBFE2E16C
:100CF000FE2EE6E0F1E0DE01119601900D92FA94ED
:100D0000E1F7E2E0E9834A875B876C877D870E879E
:100D10001F87288B398B21E02A8BFC016481758128
:100D20006F5F7F4FAE014F5F5F4F0E94F605629687
:100D30000FB6F894DEBF0FBECDBFDF91CF911F91EC
:100D40000F91FF900895CF93DF93CDB7DEB76297F1
:100D50000FB6F894DEBF0FBECDBF22E1E6E0F1E0B2
:100D6000DE01119601900D922A95E1F74E835F8383
:100D700068877987FC01648175816F5F7F4FAE0161
:100D80004F5F5F4F0E94F60562960FB6F894DEBF84
:100D90000FBECDBFDF91CF910895CF93DF93CDB735
:100DA000DEB762970FB6F894DEBF0FBECDBF22E16B
:100DB000E6E0F1E0DE01119601900D922A95E1F74F
:100DC00021E029834E875F87688B798BFC016481E2
:100DD00075816F5F7F4FAE014F5F5F4F0E94F605D9
:100DE00062960FB6F894DEBF0FBECDBFDF91CF91F4
:100DF00008951F920F920FB60F9211242F933F93D5
:100E00004F935F936F937F938F939F93AF93BF9312
:100E1000EF93FF938BED92E00E94A101FF91EF9180
:100E2000BF91AF919F918F917F916F915F914F9102
:100E30003F912F910F900FBE0F901F9018951F920A
:100E40000F920FB60F9211242F938F939F93EF93CE
:100E5000FF93E091EB02F091EC028081E091F102CE
:100E6000F091F20282FD1BC090818091F4028F5FAD
:100E70008F732091F502821741F0E091F402F0E0C7
:100E8000E552FD4F958F8093F402FF91EF919F9172
:100E90008F912F910F900FBE0F901F90189580810A
:100EA000F4CF1F920F920FB60F9211242F933F93FE
:100EB0008F939F93AF93BF93809150029091510273
:100EC000A0915202B091530230914F0223E0230FC0
:100ED0002D3758F50196A11DB11D20934F02809327
:100EE000500290935102A0935202B093530280910A
:100EF000540290915502A0915602B091570201966A
:100F0000A11DB11D8093540290935502A0935602E7
:100F1000B0935702BF91AF919F918F913F912F91C5
:100F20000F900FBE0F901F90189526E8230F029682
:100F3000A11DB11DD2CF1F920F920FB60F92112497
:100F40002F933F934F935F936F937F938F939F93D1
:100F5000AF93BF93EF93FF938091B900887F803662
:100F600009F44AC0F0F5883209F4A7C018F58031B9
:100F700009F49BC0B8F4882309F4F9C0883009F457
:100F800094C0FF91EF91BF91AF919F918F917F910D
:100F90006F915F914F913F912F910F900FBE0F90E6
:100FA0001F901895883109F488C0803251F78093DA
:100FB000820214C0803409F49DC040F48033B9F338
:100FC0008833F9F68093820285ECB0C0803509F44D
:100FD00085C0883509F496C0883499F60E94920439
:100FE000D0CF883909F48CC038F5883729F050F40F
:100FF000883611F0803729F683E0809384021092BE
:101000004E0257C0883809F47BC0803919F0803807
:1010100009F0B7CF80914E02803208F071C0E091A4
:101020004E0281E08E0F80934E028091BB00F0E073
:10103000E25DFD4F80833DC0803B39F0E0F4803AB3
:1010400009F479C0883A09F09CCF84E08093840247
:1010500010922D0210922C02E0915A02F0915B0244
:10106000099580912C0281110FC081E080932C02A0
:1010700010920C0209C0803C09F4A6CF883C09F408
:10108000A3CF883B09F07DCFE0912D0281E08E0F48
:1010900080932D02F0E0E45FFD4F80818093BB00E0
:1010A00090912D0280912C0229C080915F02809343
:1010B000BB0085EC8093BC0064CF9091810280914D
:1010C0008002981758F5E091810281E08E0F80939D
:1010D0008102F0E0E05AFD4F8081E9CFE09181028A
:1010E00081E08E0F809381028091BB00F0E0E05A96
:1010F000FD4F808390918102809180029817C8F201
:1011000085E8D8CFE091810281E08E0F8093810243
:101110008091BB00F0E0E05AFD4F80838091830214
:1011200081115CCF81E080935E0284EA8093BC00F1
:101130001092840226CF85EC8093BC00109284022A
:1011400080914E02803230F4E0914E02F0E0E25D98
:10115000FD4F108260914E0270E0E0915802F091D4
:1011600059028EE292E0099510924E020ACF109237
:10117000820234CFCF93DF93EB0188819981ADEA6E
:10118000B2E011969C938E932A813B810697EC01E5
:10119000E881F981E355FD4F3183208312961D923A
:1011A0001D921D921C92159781E290E09483838397
:1011B00083EB92E0948B838B1582158ADF91CF911C
:1011C0000895CF93DF93CDEAD2E081E290E09C8F47
:1011D0008B8F1D8E1E8E1F8E86E090E0A0E0B0E00B
:1011E00088A399A3AAA3BBA31CA21DA21EA21FA2EF
:1011F00084E491E0998F888F80E288A71AA619A6C7
:1012000083EB92E09CA78BA71DA6AC0162E971E07D
:10121000CE010E94BA088EE991E09983888388EA1A
:1012200091E0998F888F1A8619861C861B861E86E8
:101230001D86188A1F861A8A198A1C8A1B8A8CE4C2
:1012400091E09F838E838BED92E09F8B8E8B88E065
:101250008D8BDF91CF910895DB018D919C9111973A
:10126000909379038093780312962D913C91069781
:10127000DC01ED91FC91E858FC4F3183208381E241
:1012800090E0948383838AE793E0948B838B158229
:10129000158A0895CF93DF93C8E7D3E081E290E009
:1012A000988F8F8B198E1A8E1B8E86E090E0A0E0AF
:1012B000B0E08C8F9D8FAE8FBF8F18A219A21AA29B
:1012C0001BA284E491E09D8B8C8B80E28CA31EA2F8
:1012D0001DA28AE793E098A78FA319A6AC016EEA36
:1012E00071E0CE010E942C098AEB91E099838883FA
:1012F00084EC91E09D8B8C8B1E821D8218861F8250
:101300001A8619861C861B861E861D86188A1F86CD
:101310008CE491E09B838A838BED92E09B8B8A8B9C
:1013200080E1898BDF91CF910895CF92DF92EF9288
:10133000FF920F931F93CF93DF93CBEDD2E01B82ED
:101340001A8288EEC82E83E0D82EE12CF12CCC82B4
:10135000DD82EE82FF828CEC91E09983888385ECBC
:1013600090E09D878C8784EC90E09F878E8780EC4F
:1013700090E0998B888B81EC90E09B8B8A8B82EC40
:1013800090E09D8B8C8B86EC90E09F8B8E8B198EE2
:101390001A8E1B8E1C8EBE0188E793E00E944A09BC
:1013A000BE018DEA92E00E94E10809EA12E0F8012C
:1013B00013821282D183C08368EA70E083E890E0F0
:1013C0000E94730EF80193838283E2EAF3E01382B2
:1013D0001282C482D582E682F7828EED91E09183FB
:1013E0008083DF91CF911F910F91FF90EF90DF905D
:1013F000CF900895CF93DF93CDB7DEB7E1970FB6C7
:10140000F894DEBF0FBECDBF789484B5826084BDF2
:1014100084B5816084BD85B5826085BD85B58160F8
:1014200085BD80916E00816080936E001092810076
:101430008091810082608093810080918100816031
:1014400080938100809180008160809380008091F2
:10145000B10084608093B1008091B000816080937E
:10146000B00080917A00846080937A0080917A0045
:10147000826080937A0080917A00816080937A0004
:1014800080917A00806880937A001092C100109257
:101490005D0210925C02109286021092A8021092D5
:1014A000840211E01093830210925E0282E10E9496
:1014B0001D0183E10E941D018091B9008E7F809300
:1014C000B9008091B9008D7F8093B90088E4809342
:1014D000B80085E48093BC0088E792E090935B02BB
:1014E00080935A0289E792E09093590280935802C0
:1014F00088E090E09C838B831E821D8280E990E0CF
:101500000E94DA0E9A83898389E190E00E94DA0EC4
:10151000FC0181E090E09183808385E0828398E5FF
:1015200093831482158392E0968393E0978394E0EB
:101530009087818786E0828787E0838788E0848739
:1015400089E085878AE086878BE087878CE0808BBF
:101550008DE0818B8EE0828B80E1838B80E2848BB7
:1015600080E3858B81E3868B82E3878B83E3808FA7
:10157000F987E88780E090E0A0E2B1E48A879B8762
:10158000AC87BD878DEC9CECACE4BEE38E879F8777
:10159000A88BB98B80E090E0A0EEB1E48A8B9B8BA6
:1015A000AC8BBD8B40E050E068E072E4CE01019668
:1015B0000E94A30640E050E064EB72E4CE01019685
:1015C0000E94CD0640E050E060ED71E4CE0101964E
:1015D0000E94A30640E050E064EB72ECCE0101965D
:1015E0000E94CD0640E050E068E472E4CE0101962E
:1015F0000E94A30640E050E064EB72ECCE0101963D
:101600000E94CD0600E010E024EB32E440E050E020
:1016100060ED71E4CE0101960E946A0640E050E060
:1016200064EB72E4CE0101960E94CD0640E050E0EA
:1016300064E872E4CE0101960E94A30640E050E007
:1016400064EB72ECCE0101960E94CD0640E050E0C2
:1016500060E272E4CE0101960E94A30640E050E0F1
:1016600064EB72ECCE0101960E94CD0640E050E0A2
:1016700060E272E4CE0101960E94A30640E050E0D1
:1016800064EB72ECCE0101960E94CD0640E050E082
:1016900060E272E4CE0101960E94A30640E050E0B1
:1016A00060E272ECCE0101960E94CD064DEC5CEC3E
:1016B00068E772E4CE0101960E94A30640E050E084
:1016C0006CE073ECCE0101960E94CD0640E050E044
:1016D00060E971E4CE0101960E94A30640E050E06B
:1016E00064EB72E4CE0101960E94CD0600E010E0AA
:1016F00027E833E440E050E060E971E4CE01019670
:101700000E946A064AE959E96EE073ECCE0101963F
:101710000E94CD064DEC5CEC64E172E4CE010196D2
:101720000E94A30643E353E36BE272E4CE01019609
:101730000E94A3060E947A024B015C0188EEC82E2B
:1017400083E0D82EE12CF12C0E947A0268197909E5
:101750008A099B09683E734081059105A8F321E041
:10176000C21AD108E108F10888EE880E83E0981EBD
:10177000A11CB11CC114D104E104F10429F7298092
:101780003A804D815E8162E1649F9001659F300DDA
:101790001124F101E20FF31FF9ABE8AB88A999A975
:1017A0008215930509F487C282E1F101DE015696A4
:1017B00001900D928A95E1F7D1018C918111C7C0FA
:1017C0008F88988CA98CBA8C4B8C5C8C6D8C7E8CA1
:1017D0000885198541E0F8016389C8010E945A050E
:1017E000E1E0F0E0D801ED93FC9388859985DC0178
:1017F00054966C910E944905E884F98425E0F7012C
:10180000228320E030E04EEF52E4C501B4010E9493
:10181000D7114B015C010E94EA10462F61E0C7011D
:101820000E947305C501B40190580E94EA10462F2A
:1018300062E0888599850E94730520E030E0A90167
:10184000C301B2010E94061068A779A78AA79BA7C7
:1018500020E030E0A901C301B2010E9407106B0132
:101860007C0110E020E030E0A90168A579A58AA5F7
:101870009BA50E94D21187FD62C020E030E0A90143
:10188000C701B6010E94D21187FD59C0111142C093
:101890008A859B85AC85BD858CA79DA7AEA7BFA774
:1018A0009C01AD0168A579A58AA59BA50E9473102E
:1018B000181654F42CA53DA54EA55FA5C701B60189
:1018C0000E947310181634F1E884F984E5E0D7011A
:1018D0001296EC932E853F8548895989C501B4013C
:1018E0000E94D7110E94EA10462F61E0C7010E94B2
:1018F00073052E853F8548895989C501B4010E9429
:10190000D7110E94EA10462F62E0888599850E94CF
:10191000730511E020E030E0A901C301B2010E948B
:10192000061068A779A78AA79BA720E030E0A90145
:10193000C301B2010E9407106B017C0193CFCE015D
:1019400001960E948B0582E1280E311C27CF813041
:1019500009F0D4C08F88988CA98CBA8C8B8D9C8D03
:10196000AD8DBE8D88A799A7AAA7BBA720E030E0C0
:1019700044EB53E46BA17CA18DA19EA10E94781041
:1019800025E236E049E450E40E94D7112A893B89D8
:101990004C895D890E94D7116B017C0108851985EE
:1019A00041E0D80153966C91C8010E945A0581E02C
:1019B00090E0F8019183808388859985DC015496B5
:1019C0006C910E9449050885198525E0F80122835C
:1019D00020E030E04EEF52E4C501B4010E94D7117F
:1019E0002B013C010E94EA10B62E462F61E0C8018F
:1019F0000E9473054B2D62E0888599850E947305CE
:101A000020E030E0A901C701B6010E9406104B0199
:101A10005C0120E030E0A901C701B6010E94061078
:101A20006B017C0110E020E030E0A901C501B401A8
:101A30000E94D21187FD83CF20E030E0A901C701C9
:101A4000B6010E94D21187FD7ACF111140C08A855C
:101A50009B85AC85BD858CA79DA7AEA7BFA79C0124
:101A6000AD01C501B4010E947310181654F42CA5E1
:101A70003DA54EA55FA5C701B6010E9473101816BB
:101A800034F108851985E5E0D8011296EC932E858E
:101A90003F8548895989C301B2010E94D7110E942C
:101AA000EA10462F61E0C8010E9473052E853F852C
:101AB00048895989C301B2010E94D7110E94EA10D6
:101AC000462F62E0888599850E94730511E020E029
:101AD00030E0A90168A579A58AA59BA50E940610FA
:101AE0004B015C0120E030E0A90168A579A58AA539
:101AF0009BA50E9406106B017C0195CF823009F0F6
:101B000022CFCF8CD8A0E9A0FAA020E030E040E0BE
:101B10005FE36A897B898C899D890E94D7114B017B
:101B20005C01AC019B01C701B6010E94D2111816DD
:101B30000CF009CF20E030E044EB53E46BA17CA132
:101B40008DA19EA10E94781025E236E049EC50E478
:101B50000E94D7112B013C01A5019401C701B601D8
:101B60000E940710A30192010E94D71168A779A7CC
:101B70008AA79BA7A5019401C701B6010E94061080
:101B8000A30192010E94D7116CA77DA78EA79FA7E2
:101B900020E030E04EEF52E46F89788D898D9A8D88
:101BA0000E94D7114B015C018FA111E00FEF882338
:101BB00011F01FEF01E0E884F98441E0D70153966A
:101BC0006C91C7010E945A0581E090E0F701918372
:101BD000808388859985DC0154966C910E94490523
:101BE000E884F9842AE0F7012283C501B4010E9448
:101BF000EA10462F61E0C7010E947305C501B401D8
:101C000090580E94EA10462F62E0888599850E94CC
:101C10007305602F000F770B880B990B0E94221120
:101C20004B015C0120E030E0A9010E94D7119B012B
:101C3000AC0168A579A58AA59BA50E9406106B0139
:101C40007C01612F110F770B880B990B0E942211D9
:101C50002B013C0120E030E0A901C301B2010E9448
:101C6000D7119B01AC016CA57DA58EA59FA50E94F7
:101C7000061020E030E0A9010E94D21187FD5FCE5E
:101C800020E030E0A901C701B6010E94D21187FD12
:101C900056CE20E030E0A901C501B4010E94D71161
:101CA0009B01AC0168A579A58AA59BA50E94061099
:101CB0006B017C01CFCF89819A810E94760F00E071
:101CC00010E001151105E9F30E9430028823C9F3E1
:101CD0000E940000F6CF8DEA92E00E94320488E76D
:101CE00093E00C947A040F931F93CF93DF930097A4
:101CF00059F46115710541F4F0E0E0E0CF01DF91A6
:101D0000CF911F910F9108958B01EC016EE070E06F
:101D100081E090E00E94BE0EFC01892B69F380E80F
:101D200083830115110571F01387028781E883838E
:101D30008091AE039091AF03892B21F4F093AF0310
:101D4000E093AE032097D1F2D187C0878381826070
:101D500083838091B0039091B103892B79F6F0933E
:101D6000B103E093B0038091B2039091B303892B48
:101D700029F6F093B303E093B203C0CF0F931F9300
:101D8000CF93DF93869F8001879F100D969F100D44
:101D90001124C8010E94DA0EEC01009729F0A80175
:101DA00070E060E00E94FF0FCE01DF91CF911F91A4
:101DB0000F9108950F931F93CF93DF938230910576
:101DC00010F482E090E0E091B603F091B70330E0C8
:101DD00020E0B0E0A0E0309799F42115310509F436
:101DE0004AC0281B390B24303105D8F58A819B81E4
:101DF0006115710589F1FB0193838283FE0111C096
:101E0000408151810281138148175907E0F048173A
:101E1000590799F4109761F012960C931297139644
:101E20001C933296CF01DF91CF911F910F910895AE
:101E30000093B6031093B703F4CF2115310551F089
:101E40004217530738F0A901DB019A01BD01DF01F8
:101E5000F801C1CFEF01F9CF9093B7038093B60398
:101E6000CDCFFE01E20FF31F8193919322503109F0
:101E700039832883D7CF2091B4033091B503232B26
:101E800041F420910201309103013093B503209376
:101E9000B40320910001309101012115310541F475
:101EA0002DB73EB74091040150910501241B350B1D
:101EB000E091B403F091B503E217F307A0F42E1BF1
:101EC0003F0B2817390778F0AC014E5F5F4F24179E
:101ED000350748F04E0F5F1F5093B5034093B4038E
:101EE000819391939FCFF0E0E0E09CCFCF93DF937D
:101EF0000097E9F0FC01329713821282A091B60399
:101F0000B091B703ED0130E020E01097A1F42081FB
:101F10003181820F931F2091B4033091B5032817AC
:101F2000390709F061C0F093B503E093B403DF9182
:101F3000CF910895EA01CE17DF07E8F54A815B816A
:101F40009E0141155105B1F7E901FB83EA834991EF
:101F50005991C40FD51FEC17FD0761F48081918161
:101F60000296840F951FE90199838883828193816A
:101F70009B838A83F0E0E0E012968D919C91139709
:101F80000097B9F52D913C911197CD010296820FE2
:101F9000931F2091B4033091B5032817390739F600
:101FA000309751F51092B7031092B603B093B50372
:101FB000A093B403BCCFD383C28340815181840FEB
:101FC000951FC817D90761F44E5F5F4F88819981CB
:101FD000480F591F518340838A819B819383828359
:101FE0002115310509F0B0CFF093B703E093B603A4
:101FF0009ECFFD01DC01C0CF13821282D7CFDC015E
:1020000001C06D9341505040E0F708955058BB27F0
:10201000AA270E941E100C9498110E948A1138F071
:102020000E94911120F039F49F3F19F426F40C948A
:1020300087110EF4E095E7FB0C948111E92F0E94C3
:10204000A91158F3BA17620773078407950720F0A0
:1020500079F4A6F50C94CB110EF4E0950B2EBA2F63
:10206000A02D0B01B90190010C01CA01A00111249E
:10207000FF27591B99F0593F50F4503E68F11A164A
:10208000F040A22F232F342F4427585FF3CF4695DB
:1020900037952795A795F0405395C9F77EF41F16FD
:1020A000BA0B620B730B840BBAF09150A1F0FF0FC7
:1020B000BB1F661F771F881FC2F70EC0BA0F621FB3
:1020C000731F841F48F4879577956795B795F795A3
:1020D0009E3F08F0B0CF9395880F08F09927EE0F38
:1020E0009795879508950E945D1108F481E0089501
:1020F0000E948C100C9498110E94911158F00E942B
:102100008A1140F029F45F3F29F00C94811151119C
:102110000C94CC110C9487110E94A91168F3992397
:10212000B1F3552391F3951B550BBB27AA276217D3
:102130007307840738F09F5F5F4F220F331F441FE0
:10214000AA1FA9F335D00E2E3AF0E0E832D0915014
:102150005040E695001CCAF72BD0FE2F29D0660F01
:10216000771F881FBB1F261737074807AB07B0E844
:1021700009F0BB0B802DBF01FF2793585F4F3AF04A
:102180009E3F510578F00C9481110C94CC115F3F67
:10219000E4F3983ED4F3869577956795B795F795D0
:1021A0009F5FC9F7880F911D9695879597F90895B8
:1021B000E1E0660F771F881FBB1F62177307840754
:1021C000BA0720F0621B730B840BBA0BEE1F88F763
:1021D000E09508950E94F1106894B1110C94CC110F
:1021E00008950E94B11188F09F5798F0B92F992750
:1021F000B751B0F0E1F0660F771F881F991F1AF0F2
:10220000BA95C9F714C0B13091F00E94CB11B1E07A
:1022100008950C94CB11672F782F8827B85F39F079
:10222000B93FCCF3869577956795B395D9F73EF48A
:1022300090958095709561957F4F8F4F9F4F089532
:10224000E89409C097FB3EF4909580957095619550
:102250007F4F8F4F9F4F9923A9F0F92F96E9BB2706
:102260009395F695879577956795B795F111F8CF82
:10227000FAF4BB0F11F460FF1BC06F5F7F4F8F4FED
:102280009F4F16C0882311F096E911C0772321F0E3
:102290009EE8872F762F05C0662371F096E8862F7B
:1022A00070E060E02AF09A95660F771F881FDAF7D2
:1022B000880F9695879597F90895990F0008550FFF
:1022C000AA0BE0E8FEEF16161706E807F907C0F0BC
:1022D00012161306E407F50798F0621B730B840BC4
:1022E000950B39F40A2661F0232B242B252B21F49E
:1022F00008950A2609F4A140A6958FEF811D811D3E
:10230000089597F99F6780E870E060E008959FEF77
:1023100080EC089500240A9416161706180609067C
:10232000089500240A94121613061406050608954B
:10233000092E0394000C11F4882352F0BB0F40F4D3
:10234000BF2B11F460FF04C06F5F7F4F8F4F9F4F13
:10235000089557FD9058440F551F59F05F3F71F095
:102360004795880F97FB991F61F09F3F79F08795FC
:102370000895121613061406551FF2CF4695F1DF85
:1023800008C0161617061806991FF1CF8695710515
:10239000610508940895E894BB2766277727CB0149
:1023A00097F908950E945D1108F48FEF08950E9437
:1023B000EA110C9498110E948A1138F00E94911130
:1023C00020F0952311F00C9481110C9487111124A5
:1023D0000C94CC110E94A91170F3959FC1F3950F35
:1023E00050E0551F629FF001729FBB27F00DB11D99
:1023F000639FAA27F00DB11DAA1F649F6627B00D29
:10240000A11D661F829F2227B00DA11D621F739F11
:10241000B00DA11D621F839FA00D611D221F749F1F
:102420003327A00D611D231F849F600D211D822F66
:10243000762F6A2F11249F5750409AF0F1F088238D
:102440004AF0EE0FFF1FBB1F661F771F881F9150BA
:102450005040A9F79E3F510580F00C9481110C94D7
:10246000CC115F3FE4F3983ED4F38695779567955A
:10247000B795F795E7959F5FC1F7FE2B880F911DE4
:102480009695879597F90895EE0FFF1F0590F491A3
:10249000E02D099410E0C8E5D0E004C0FE010E94E0
:0E24A00044122196C935D107C9F7F894FFCF31
:1024AE000000B8038000000000803F000000000024
:1024BE0000000000000000011800000000000000F5
:1024CE000000E8FFE8FF000000000000140000001C
:1024DE00000000000000ECFFECFF00000000000018
:1024EE00000000009104F405000000004904E60518
:1024FE000004FD03FA03F7031903EC03B103980379
:10250E007F039F0240031C030200000000005C04D6
:10251E00E805FEFFFEFF00004A04EA050600000083
:10252E0000001404DA05FAFFFAFF00000204DC05CD
:10253E009E011E012801A8011800000000003204AF
:10254E00C405E8FFE8FF00003F04CE05BA013201E2
:10255E003C01C4011400000000007A04B005ECFF39
:10256E00ECFF00008704BA0500000000C3014B0217
:10257E0064011002950173018701000000001A0525
:0C258E00ED041903C304E604D304C404E4
:107E0000112484B714BE81FFF0D085E080938100F7
:107E100082E08093C00088E18093C10086E0809377
:107E2000C20080E18093C4008EE0C9D0259A86E02C
:107E300020E33CEF91E0309385002093840096BBD3
:107E4000B09BFECF1D9AA8958150A9F7CC24DD24C4
:107E500088248394B5E0AB2EA1E19A2EF3E0BF2EE7
:107E6000A2D0813461F49FD0082FAFD0023811F036
:107E7000013811F484E001C083E08DD089C08234E0
:107E800011F484E103C0853419F485E0A6D080C0E4
:107E9000853579F488D0E82EFF2485D0082F10E0AE
:107EA000102F00270E291F29000F111F8ED06801E7
:107EB0006FC0863521F484E090D080E0DECF843638
:107EC00009F040C070D06FD0082F6DD080E0C81688
:107ED00080E7D80618F4F601B7BEE895C0E0D1E017
:107EE00062D089930C17E1F7F0E0CF16F0E7DF06D8
:107EF00018F0F601B7BEE89568D007B600FCFDCFD4
:107F0000A601A0E0B1E02C9130E011968C91119780
:107F100090E0982F8827822B932B1296FA010C0160
:107F200087BEE89511244E5F5F4FF1E0A038BF0790
:107F300051F7F601A7BEE89507B600FCFDCF97BE46
:107F4000E89526C08437B1F42ED02DD0F82E2BD052
:107F50003CD0F601EF2C8F010F5F1F4F84911BD097
:107F6000EA94F801C1F70894C11CD11CFA94CF0C13
:107F7000D11C0EC0853739F428D08EE10CD085E9AC
:107F80000AD08FE07ACF813511F488E018D01DD067
:107F900080E101D065CF982F8091C00085FFFCCF94
:107FA0009093C60008958091C00087FFFCCF809118
:107FB000C00084FD01C0A8958091C6000895E0E648
:107FC000F0E098E1908380830895EDDF803219F02E
:107FD00088E0F5DFFFCF84E1DECF1F93182FE3DFCA
:107FE0001150E9F7F2DF1F91089580E0E8DFEE27F6
:047FF000FF270994CA
:027FFE00040479
:0400000300007E007B
:00000001FF